{
  "address": "0x1cf776061eC4921e84Ee610Fee2656fAEe1A69d4",
  "abi": [
    {
      "inputs": [],
      "stateMutability": "nonpayable",
      "type": "constructor"
    },
    {
      "anonymous": false,
      "inputs": [
        {
          "indexed": true,
          "internalType": "address",
          "name": "owner",
          "type": "address"
        },
        {
          "indexed": true,
          "internalType": "address",
          "name": "approved",
          "type": "address"
        },
        {
          "indexed": true,
          "internalType": "uint256",
          "name": "tokenId",
          "type": "uint256"
        }
      ],
      "name": "Approval",
      "type": "event"
    },
    {
      "anonymous": false,
      "inputs": [
        {
          "indexed": true,
          "internalType": "address",
          "name": "owner",
          "type": "address"
        },
        {
          "indexed": true,
          "internalType": "address",
          "name": "operator",
          "type": "address"
        },
        {
          "indexed": false,
          "internalType": "bool",
          "name": "approved",
          "type": "bool"
        }
      ],
      "name": "ApprovalForAll",
      "type": "event"
    },
    {
      "anonymous": false,
      "inputs": [
        {
          "indexed": true,
          "internalType": "address",
          "name": "from",
          "type": "address"
        },
        {
          "indexed": true,
          "internalType": "address",
          "name": "to",
          "type": "address"
        },
        {
          "indexed": true,
          "internalType": "uint256",
          "name": "tokenId",
          "type": "uint256"
        }
      ],
      "name": "Transfer",
      "type": "event"
    },
    {
      "inputs": [
        {
          "internalType": "address",
          "name": "to",
          "type": "address"
        },
        {
          "internalType": "uint256",
          "name": "tokenId",
          "type": "uint256"
        }
      ],
      "name": "approve",
      "outputs": [],
      "stateMutability": "nonpayable",
      "type": "function"
    },
    {
      "inputs": [
        {
          "internalType": "address",
          "name": "owner",
          "type": "address"
        }
      ],
      "name": "balanceOf",
      "outputs": [
        {
          "internalType": "uint256",
          "name": "",
          "type": "uint256"
        }
      ],
      "stateMutability": "view",
      "type": "function"
    },
    {
      "inputs": [
        {
          "internalType": "uint256",
          "name": "",
          "type": "uint256"
        }
      ],
      "name": "chubbiness",
      "outputs": [
        {
          "internalType": "uint256",
          "name": "",
          "type": "uint256"
        }
      ],
      "stateMutability": "view",
      "type": "function"
    },
    {
      "inputs": [
        {
          "internalType": "uint256",
          "name": "",
          "type": "uint256"
        }
      ],
      "name": "color",
      "outputs": [
        {
          "internalType": "bytes3",
          "name": "",
          "type": "bytes3"
        }
      ],
      "stateMutability": "view",
      "type": "function"
    },
    {
      "inputs": [],
      "name": "curve",
      "outputs": [
        {
          "internalType": "uint256",
          "name": "",
          "type": "uint256"
        }
      ],
      "stateMutability": "view",
      "type": "function"
    },
    {
      "inputs": [
        {
          "internalType": "uint256",
          "name": "tokenId",
          "type": "uint256"
        }
      ],
      "name": "getApproved",
      "outputs": [
        {
          "internalType": "address",
          "name": "",
          "type": "address"
        }
      ],
      "stateMutability": "view",
      "type": "function"
    },
    {
      "inputs": [
        {
          "internalType": "address",
          "name": "owner",
          "type": "address"
        },
        {
          "internalType": "address",
          "name": "operator",
          "type": "address"
        }
      ],
      "name": "isApprovedForAll",
      "outputs": [
        {
          "internalType": "bool",
          "name": "",
          "type": "bool"
        }
      ],
      "stateMutability": "view",
      "type": "function"
    },
    {
      "inputs": [],
      "name": "limit",
      "outputs": [
        {
          "internalType": "uint256",
          "name": "",
          "type": "uint256"
        }
      ],
      "stateMutability": "view",
      "type": "function"
    },
    {
      "inputs": [],
      "name": "mintItem",
      "outputs": [
        {
          "internalType": "uint256",
          "name": "",
          "type": "uint256"
        }
      ],
      "stateMutability": "payable",
      "type": "function"
    },
    {
      "inputs": [
        {
          "internalType": "uint256",
          "name": "",
          "type": "uint256"
        }
      ],
      "name": "mouthLength",
      "outputs": [
        {
          "internalType": "uint256",
          "name": "",
          "type": "uint256"
        }
      ],
      "stateMutability": "view",
      "type": "function"
    },
    {
      "inputs": [],
      "name": "name",
      "outputs": [
        {
          "internalType": "string",
          "name": "",
          "type": "string"
        }
      ],
      "stateMutability": "view",
      "type": "function"
    },
    {
      "inputs": [
        {
          "internalType": "uint256",
          "name": "tokenId",
          "type": "uint256"
        }
      ],
      "name": "ownerOf",
      "outputs": [
        {
          "internalType": "address",
          "name": "",
          "type": "address"
        }
      ],
      "stateMutability": "view",
      "type": "function"
    },
    {
      "inputs": [],
      "name": "price",
      "outputs": [
        {
          "internalType": "uint256",
          "name": "",
          "type": "uint256"
        }
      ],
      "stateMutability": "view",
      "type": "function"
    },
    {
      "inputs": [],
      "name": "recipient",
      "outputs": [
        {
          "internalType": "address payable",
          "name": "",
          "type": "address"
        }
      ],
      "stateMutability": "view",
      "type": "function"
    },
    {
      "inputs": [
        {
          "internalType": "uint256",
          "name": "id",
          "type": "uint256"
        }
      ],
      "name": "renderTokenById",
      "outputs": [
        {
          "internalType": "string",
          "name": "",
          "type": "string"
        }
      ],
      "stateMutability": "view",
      "type": "function"
    },
    {
      "inputs": [
        {
          "internalType": "address",
          "name": "from",
          "type": "address"
        },
        {
          "internalType": "address",
          "name": "to",
          "type": "address"
        },
        {
          "internalType": "uint256",
          "name": "tokenId",
          "type": "uint256"
        }
      ],
      "name": "safeTransferFrom",
      "outputs": [],
      "stateMutability": "nonpayable",
      "type": "function"
    },
    {
      "inputs": [
        {
          "internalType": "address",
          "name": "from",
          "type": "address"
        },
        {
          "internalType": "address",
          "name": "to",
          "type": "address"
        },
        {
          "internalType": "uint256",
          "name": "tokenId",
          "type": "uint256"
        },
        {
          "internalType": "bytes",
          "name": "data",
          "type": "bytes"
        }
      ],
      "name": "safeTransferFrom",
      "outputs": [],
      "stateMutability": "nonpayable",
      "type": "function"
    },
    {
      "inputs": [
        {
          "internalType": "address",
          "name": "operator",
          "type": "address"
        },
        {
          "internalType": "bool",
          "name": "approved",
          "type": "bool"
        }
      ],
      "name": "setApprovalForAll",
      "outputs": [],
      "stateMutability": "nonpayable",
      "type": "function"
    },
    {
      "inputs": [
        {
          "internalType": "bytes4",
          "name": "interfaceId",
          "type": "bytes4"
        }
      ],
      "name": "supportsInterface",
      "outputs": [
        {
          "internalType": "bool",
          "name": "",
          "type": "bool"
        }
      ],
      "stateMutability": "view",
      "type": "function"
    },
    {
      "inputs": [],
      "name": "symbol",
      "outputs": [
        {
          "internalType": "string",
          "name": "",
          "type": "string"
        }
      ],
      "stateMutability": "view",
      "type": "function"
    },
    {
      "inputs": [
        {
          "internalType": "uint256",
          "name": "index",
          "type": "uint256"
        }
      ],
      "name": "tokenByIndex",
      "outputs": [
        {
          "internalType": "uint256",
          "name": "",
          "type": "uint256"
        }
      ],
      "stateMutability": "view",
      "type": "function"
    },
    {
      "inputs": [
        {
          "internalType": "address",
          "name": "owner",
          "type": "address"
        },
        {
          "internalType": "uint256",
          "name": "index",
          "type": "uint256"
        }
      ],
      "name": "tokenOfOwnerByIndex",
      "outputs": [
        {
          "internalType": "uint256",
          "name": "",
          "type": "uint256"
        }
      ],
      "stateMutability": "view",
      "type": "function"
    },
    {
      "inputs": [
        {
          "internalType": "uint256",
          "name": "id",
          "type": "uint256"
        }
      ],
      "name": "tokenURI",
      "outputs": [
        {
          "internalType": "string",
          "name": "",
          "type": "string"
        }
      ],
      "stateMutability": "view",
      "type": "function"
    },
    {
      "inputs": [],
      "name": "totalSupply",
      "outputs": [
        {
          "internalType": "uint256",
          "name": "",
          "type": "uint256"
        }
      ],
      "stateMutability": "view",
      "type": "function"
    },
    {
      "inputs": [
        {
          "internalType": "address",
          "name": "from",
          "type": "address"
        },
        {
          "internalType": "address",
          "name": "to",
          "type": "address"
        },
        {
          "internalType": "uint256",
          "name": "tokenId",
          "type": "uint256"
        }
      ],
      "name": "transferFrom",
      "outputs": [],
      "stateMutability": "nonpayable",
      "type": "function"
    }
  ],
  "transactionHash": "0x4a9bf62b25b5da9975485d5bcf50c759c30051ac5c386f6a9c965a9cfd6551be",
  "args": [],
  "numDeployments": 1,
  "solcInputHash": "ccd2e7618229989bbcd503d9a675ba9a",
  "bytecode": "0x60806040523461033a57604080519081016001600160401b0381118282101761024757604090815260118252704f7074696d69737469634c6f6f6769657360781b602083015280519081016001600160401b038111828210176102475760405260068152654f504c4f4f4760d01b602082015281516001600160401b03811161024757600054600181811c91168015610330575b602082101461022757601f81116102cc575b50602092601f8211600114610268579281929360009261025d575b50508160011b916000199060031b1c1916176000555b80516001600160401b03811161024757600154600181811c9116801561023d575b602082101461022757601f81116101c2575b50602091601f821160011461015e57918192600092610153575b50508160011b916000199060031b1c1916176001555b66038d7ea4c68000600b5560405161277c90816103408239f35b015190503880610123565b601f198216926001600052806000209160005b8581106101aa57508360019510610191575b505050811b01600155610139565b015160001960f88460031b161c19169055388080610183565b91926020600181928685015181550194019201610171565b60016000527fb10e2d527612073b26eecdfd717e6a320cf44b4afac2b0732d9fcbe2b7fa0cf6601f830160051c8101916020841061021d575b601f0160051c01905b8181106102115750610109565b60008155600101610204565b90915081906101fb565b634e487b7160e01b600052602260045260246000fd5b90607f16906100f7565b634e487b7160e01b600052604160045260246000fd5b0151905038806100c0565b601f1982169360008052806000209160005b8681106102b4575083600195961061029b575b505050811b016000556100d6565b015160001960f88460031b161c1916905538808061028d565b9192602060018192868501518155019401920161027a565b600080527f290decd9548b62a8d60345a988386fc84ba6bc95484008f6362f93160ef3e563601f830160051c81019160208410610326575b601f0160051c01905b81811061031a57506100a5565b6000815560010161030d565b9091508190610304565b90607f1690610093565b600080fdfe6080604052600436101561001257600080fd5b60003560e01c806301ffc9a7146101a757806306fdde03146101a2578063081812fc1461019d578063095ea7b31461019857806318160ddd1461019357806323b872dd1461018e5780632f745c59146101895780633f4f85611461018457806342842e0e1461017f5780634f6ccce71461017a5780636352211e1461017557806366d003ac1461017057806370a082311461016b5780637165485d1461016657806395d89b4114610161578063a035b1fe1461015c578063a22cb46514610157578063a2d6c6da14610152578063a4d66daf1461014d578063b88d4fde14610148578063c87b56dd14610143578063d4e28c9c1461013e578063e985e9c514610139578063eb93406b146101345763faa204e11461012f57600080fd5b61111b565b610f70565b610f13565b610edc565b610a8b565b610a02565b61098c565b610959565b61086d565b61084f565b610797565b61077a565b61074f565b610720565b610702565b610657565b61062d565b610601565b61054e565b610525565b6104cd565b6103f7565b61039b565b6102a8565b6101c3565b6001600160e01b03198116036101be57565b600080fd5b346101be5760203660031901126101be576004356101e0816101ac565b63ffffffff60e01b1663780e9d6360e01b8114908115610209575b506040519015158152602090f35b6380ac58cd60e01b81149150811561023b575b811561022a575b50386101fb565b6301ffc9a760e01b14905038610223565b635b5e139f60e01b8114915061021c565b60005b83811061025f5750506000910152565b818101518382015260200161024f565b906020916102888151809281855285808601910161024c565b601f01601f1916010190565b9060206102a592818152019061026f565b90565b346101be5760003660031901126101be57604051600080548060011c9060018116908115610391575b60208310821461037d5782855260208501919081156103645750600114610313575b61030f84610303818603826109bf565b60405191829182610294565b0390f35b60008080529250907f290decd9548b62a8d60345a988386fc84ba6bc95484008f6362f93160ef3e5635b81841061035057505001610303826102f3565b80548484015260209093019260010161033d565b60ff191682525090151560051b019050610303826102f3565b634e487b7160e01b84526022600452602484fd5b91607f16916102d1565b346101be5760203660031901126101be5760206103b9600435611147565b6040516001600160a01b039091168152f35b600435906001600160a01b03821682036101be57565b602435906001600160a01b03821682036101be57565b346101be5760403660031901126101be576104106103cb565b60243561041c816112d0565b916001600160a01b03808416908216811461047e5761044e93610449913314908115610450575b50611185565b61194e565b005b6001600160a01b0316600090815260056020908152604080832033845290915290205460ff16905038610443565b60405162461bcd60e51b815260206004820152602160248201527f4552433732313a20617070726f76616c20746f2063757272656e74206f776e656044820152603960f91b6064820152608490fd5b346101be5760003660031901126101be576020600854604051908152f35b60609060031901126101be576004356001600160a01b03811681036101be57906024356001600160a01b03811681036101be579060443590565b346101be5761044e610536366104eb565b9161054961054484336119ba565b6111f7565b611a96565b346101be5760403660031901126101be576105676103cb565b60243590610574816112f3565b8210156105a8576001600160a01b031660009081526006602090815260408083209383529281529082902054915191825290f35b60405162461bcd60e51b815260206004820152602b60248201527f455243373231456e756d657261626c653a206f776e657220696e646578206f7560448201526a74206f6620626f756e647360a81b6064820152608490fd5b346101be5760203660031901126101be57600435600052600e6020526020604060002054604051908152f35b346101be5761044e61063e366104eb565b906040519261064e6020856109bf565b60008452611864565b346101be5760203660031901126101be576004356008548110156106a85760086000527ff3f7a9fe364faab93b216da50a3214154f22a0a2b415b23a84c8169e8b636ee30154604051908152602090f35b60405162461bcd60e51b815260206004820152602c60248201527f455243373231456e756d657261626c653a20676c6f62616c20696e646578206f60448201526b7574206f6620626f756e647360a01b6064820152608490fd5b346101be5760203660031901126101be5760206103b96004356112d0565b346101be5760003660031901126101be576020604051732e0ace0129e66a36cee92c5146c73ec4874d01098152f35b346101be5760203660031901126101be57602061077261076d6103cb565b6112f3565b604051908152f35b346101be5760003660031901126101be5760206040516103ea8152f35b346101be5760003660031901126101be5760405160006001548060011c9060018116908115610845575b60208310821461037d57828552602085019190811561036457506001146107f25761030f84610303818603826109bf565b600160009081529250907fb10e2d527612073b26eecdfd717e6a320cf44b4afac2b0732d9fcbe2b7fa0cf65b81841061083157505001610303826102f3565b80548484015260209093019260010161081e565b91607f16916107c1565b346101be5760003660031901126101be576020600b54604051908152f35b346101be5760403660031901126101be576108866103cb565b60243580151581036101be576001600160a01b0382169133831461091457816108d16108e29233600052600560205260406000209060018060a01b0316600052602052604060002090565b9060ff801983541691151516179055565b604051901515815233907f17307eab39ab6107e8899845ad3d59bd9653f200f220920489ca2b5937696c3190602090a3005b60405162461bcd60e51b815260206004820152601960248201527f4552433732313a20617070726f766520746f2063616c6c6572000000000000006044820152606490fd5b346101be5760203660031901126101be5761030f6109786004356113d5565b60405191829160208352602083019061026f565b346101be5760003660031901126101be576020604051610e908152f35b634e487b7160e01b600052604160045260246000fd5b90601f8019910116810190811067ffffffffffffffff8211176109e157604052565b6109a9565b67ffffffffffffffff81116109e157601f01601f191660200190565b346101be5760803660031901126101be57610a1b6103cb565b610a236103e1565b906044356064359267ffffffffffffffff84116101be57366023850112156101be57836004013592610a54846109e6565b93610a6260405195866109bf565b80855236602482880101116101be57602081600092602461044e99018389013786010152611864565b346101be5760203660031901126101be576004356001600160a01b03610ab0826112d0565b161515610abc906118ac565b610ac581611d35565b604051674c6f6f676965202360c01b602082015290819060288201610ae9916113be565b03601f1981018252610afb90826109bf565b610b0f82600052600c602052604060002090565b5460e81b610b1c90611c87565b91610b3181600052600d602052604060002090565b54610b3b90611ee0565b92610b5082600052600e602052604060002090565b54610b5a90611ee0565b6040517f54686973204c6f6f6769652069732074686520636f6c6f7220230000000000006020820152948592603a8401610b93916113be565b750103bb4ba3410309031b43ab13134b732b9b99037b3160551b8152601601610bbb916113be565b7401030b7321036b7baba34103632b733ba341037b31605d1b8152601501610be2916113be565b6221212160e81b815260030103601f1981018452610c0090846109bf565b610c0981611f84565b610c129061209f565b90610c1c81611d35565b90610c3181600052600c602052604060002090565b5460e81b610c3e90611c87565b610c5282600052600d602052604060002090565b54610c5c90611ee0565b90610c7183600052600e602052604060002090565b54610c7b90611ee0565b92610c85906112d0565b610c97906001600160a01b0316612187565b604051683d913730b6b2911d1160b91b602082015297889791959160298901610cbf916113be565b71111610113232b9b1b934b83a34b7b7111d1160711b8152601201610ce3916113be565b7f222c202265787465726e616c5f75726c223a2268747470733a2f2f6275726e7981526e626f79732e636f6d2f746f6b656e2f60881b6020820152602f01610d2a916113be565b7f222c202261747472696275746573223a205b7b2274726169745f74797065223a8152742022636f6c6f72222c202276616c7565223a20222360581b6020820152603501610d77916113be565b7f227d2c7b2274726169745f74797065223a20226368756262696e657373222c208152680113b30b63ab2911d160bd1b6020820152602901610db8916113be565b7f7d2c7b2274726169745f74797065223a20226d6f7574684c656e677468222c208152680113b30b63ab2911d160bd1b6020820152602901610df9916113be565b6c3eae96101137bbb732b9111d1160991b8152600d01610e18916113be565b6c1116101134b6b0b3b2911d101160991b8152600d017f646174613a696d6167652f7376672b786d6c3b6261736536342c0000000000008152601a01610e5d916113be565b61227d60f01b815260020103601f1981018252610e7a90826109bf565b610e839061209f565b6040517f646174613a6170706c69636174696f6e2f6a736f6e3b6261736536342c0000006020820152908190603d8201610ebc916113be565b03601f1981018252610ece90826109bf565b60405161030f819282610294565b346101be5760203660031901126101be57600435600052600c602052602060406000205460e81b6040519062ffffff60e81b168152f35b346101be5760403660031901126101be57602060ff610f64610f336103cb565b610f3b6103e1565b6001600160a01b0391821660009081526005865260408082209290931681526020919091522090565b54166040519015158152f35b60003660031901126101be57610e90600a54108061110f575b610f92906118e4565b610fa06001600a5401600a55565b61030f600a54610fb08133612250565b6040805160208101838152600019430140928201929092526bffffffffffffffffffffffff1933606090811b82168184015230901b1660748201526068815261109f9190610fff6088826109bf565b5190206000838152600c602052604081206110529183901a60f81b6001600160f81b03191660ff60f01b600185901a60f01b161760ff60e81b600285901a60e81b161760e81c62ffffff19825416179055565b60ff6037600383901a020460230161107484600052600d602052604060002090565b5561109361108c84600052600d602052604060002090565b5460021c90565b9060041a0260ff900490565b60b4016110b682600052600e602052604060002090565b556110d16110cc6103ea600b54026103e8900490565b600b55565b6110ff600080808034732e0ace0129e66a36cee92c5146c73ec4874d01095af16110f961191e565b506118e4565b6040519081529081906020820190565b50600b54341015610f89565b346101be5760203660031901126101be57600435600052600d6020526020604060002054604051908152f35b60008181526002602052604090205461116a906001600160a01b03161515611284565b6000908152600460205260409020546001600160a01b031690565b1561118c57565b60405162461bcd60e51b815260206004820152603d60248201527f4552433732313a20617070726f76652063616c6c6572206973206e6f7420746f60448201527f6b656e206f776e6572206f7220617070726f76656420666f7220616c6c0000006064820152608490fd5b156111fe57565b60405162461bcd60e51b815260206004820152602d60248201527f4552433732313a2063616c6c6572206973206e6f7420746f6b656e206f776e6560448201526c1c881bdc88185c1c1c9bdd9959609a1b6064820152608490fd5b604051906112686020836109bf565b60008252565b634e487b7160e01b600052603260045260246000fd5b1561128b57565b60405162461bcd60e51b815260206004820152601860248201527f4552433732313a20696e76616c696420746f6b656e20494400000000000000006044820152606490fd5b6000908152600260205260409020546001600160a01b03166102a5811515611284565b6001600160a01b0316801561131357600052600360205260406000205490565b60405162461bcd60e51b815260206004820152602960248201527f4552433732313a2061646472657373207a65726f206973206e6f7420612076616044820152683634b21037bbb732b960b91b6064820152608490fd5b634e487b7160e01b600052601160045260246000fd5b908160090291600983040361139157565b61136a565b600281901b91906001600160fe1b0381160361139157565b61032a039061032a821161139157565b906113d16020928281519485920161024c565b0190565b6113e981600052600c602052604060002090565b5460e81b6113f690611c87565b61140a82600052600d602052604060002090565b5461141490611d35565b9161142981600052600d602052604060002090565b5461143390611380565b61143c906113ae565b600b900461144990611d35565b9061145e90600052600e602052604060002090565b5461146890611d35565b6040516c1e339034b21e9132bcb298911f60991b6020820152938493919291602d85017f3c656c6c69707365207374726f6b652d77696474683d2233222072793d22323981527f2e35222072783d2232392e35222069643d227376675f31222063793d2231353460208201527f2e35222063783d223138312e3522207374726f6b653d2223303030222066696c604082015269361e9111b3333311179f60b11b6060820152606a017f3c656c6c697073652072793d22332e35222072783d22322e35222069643d227381527f76675f33222063793d223135342e35222063783d223137332e3522207374726f60208201527f6b652d77696474683d223322207374726f6b653d2223303030222066696c6c3d604082015267111198181811179f60c11b6060820152606801631e17b39f60e11b81526004016c1e339034b21e913432b0b2111f60991b8152600d016f3c656c6c697073652066696c6c3d222360801b81526010016115d8916113be565b7f22207374726f6b652d77696474683d2233222063783d223230342e352220637981527f3d223231312e3830303635222069643d227376675f35222072783d22000000006020820152603c0161162d916113be565b7f222072793d2235312e383030363522207374726f6b653d2223303030222f3e008152601f01631e17b39f60e11b81526004016c1e339034b21e9132bcb299111f60991b8152600d017f3c656c6c69707365207374726f6b652d77696474683d2233222072793d22323981527f2e35222072783d2232392e35222069643d227376675f32222063793d2231363860208201527f2e35222063783d223230392e3522207374726f6b653d2223303030222066696c604082015269361e9111b3333311179f60b11b6060820152606a017f3c656c6c697073652072793d22332e35222072783d2233222069643d2273766781527f5f34222063793d223136392e35222063783d2232303822207374726f6b652d7760208201527f696474683d2233222066696c6c3d222330303022207374726f6b653d222330306040820152631811179f60e11b60608201526064017f3c2f673e3c6720636c6173733d226d6f75746822207472616e73666f726d3d228152690e8e4c2dce6d8c2e8ca560b31b6020820152602a016117bc916113be565b64161814911f60d91b81526005017f3c7061746820643d224d203133302032343020512031363520323530200000008152601d016117f9916113be565b7f2032333522207374726f6b653d22626c61636b22207374726f6b652d7769647481527f683d2233222066696c6c3d227472616e73706172656e74222f3e0000000000006020820152603a01631e17b39f60e11b815260040103601f19810182526102a590826109bf565b9061188893929161187861054484336119ba565b611883838383611a96565b6124e7565b1561188f57565b60405162461bcd60e51b8152806118a860048201611e8d565b0390fd5b156118b357565b60405162461bcd60e51b81526020600482015260096024820152681b9bdd08195e1a5cdd60ba1b6044820152606490fd5b156118eb57565b60405162461bcd60e51b815260206004820152600b60248201526a26b4b73a1d1032b93937b960a91b6044820152606490fd5b3d15611949573d9061192f826109e6565b9161193d60405193846109bf565b82523d6000602084013e565b606090565b600082815260046020526040902080546001600160a01b0319166001600160a01b0383161790556001600160a01b03611986836112d0565b6001600160a01b0390921691167f8c5be1e5ebec7d5bd14f71427d1e84f3dd0314c0f7b2291e5b200ac8c7c3b925600080a4565b6001600160a01b036119cb836112d0565b6001600160a01b0383169116818114939192908415611a0c575b505082156119f257505090565b9091506001600160a01b0390611a0790611147565b161490565b60009081526005602090815260408083206001600160a01b03949094168352929052205460ff16925038806119e5565b15611a4357565b60405162461bcd60e51b815260206004820152602560248201527f4552433732313a207472616e736665722066726f6d20696e636f72726563742060448201526437bbb732b960d91b6064820152608490fd5b611a9f836112d0565b6001600160a01b038083169291611ab891168314611a3c565b6001600160a01b038316928315611bbf57611b3e82611adb8784611b989661236f565b611afd85611af7611aeb8a6112d0565b6001600160a01b031690565b14611a3c565b611b24611b14886000526004602052604060002090565b80546001600160a01b0319169055565b6001600160a01b0316600090815260036020526040902090565b80546000190190556001600160a01b038116600090815260036020526040902060018154019055611b79856000526002602052604060002090565b80546001600160a01b0319166001600160a01b03909216919091179055565b7fddf252ad1be2c89b69c2b068fc378daa952ba7f163c4a11628f55a4df523b3ef600080a4565b60405162461bcd60e51b8152602060048201526024808201527f4552433732313a207472616e7366657220746f20746865207a65726f206164646044820152637265737360e01b6064820152608490fd5b60408051909190611c2183826109bf565b6006815291601f1901366020840137565b90611c3c826109e6565b611c4960405191826109bf565b8281528092611c5a601f19916109e6565b0190602036910137565b805115611c715760200190565b61126e565b908151811015611c71570160200190565b611c8f611c10565b9060005b60038110611ca057505090565b81811a90600f8216916010831015611c7157600f611cf9611cf3611d00938560011b966f181899199a1a9b1b9c1cb0b131b232b360811b901a611ce6600189018b611c76565b5360f41b600f60f81b1690565b60f81c90565b1660ff1690565b916010831015611c71576001926f181899199a1a9b1b9c1cb0b131b232b360811b901a90611d2e9086611c76565b5301611c93565b8060009172184f03e93ff9f4daa797ed6e38ed64bf6a1f0160401b821015611e6a575b806d04ee2d6d415b85acef8100000000600a921015611e4e575b662386f26fc10000811015611e39575b6305f5e100811015611e27575b612710811015611e17575b6064811015611e08575b1015611dfd575b611de86021611dbc60018501611c32565b938401015b60001901916f181899199a1a9b1b9c1cb0b131b232b360811b600a82061a8353600a900490565b8015611df857611de89091611dc1565b505090565b600190910190611dab565b60029060649004930192611da4565b6004906127109004930192611d9a565b6008906305f5e1009004930192611d8f565b601090662386f26fc100009004930192611d82565b6020906d04ee2d6d415b85acef81000000009004930192611d72565b506040915072184f03e93ff9f4daa797ed6e38ed64bf6a1f0160401b8104611d58565b60809060208152603260208201527f4552433732313a207472616e7366657220746f206e6f6e20455243373231526560408201527131b2b4bb32b91034b6b83632b6b2b73a32b960711b60608201520190565b8015611f645780816000925b611f54575080611efb83611c32565b92905b611f0757505090565b6000190190611f3f611f2f611f26600a840493600a8502900360ff1690565b60300160ff1690565b60f81b6001600160f81b03191690565b60001a611f4c8385611c76565b539081611efe565b600190920191600a900480611eec565b50604051611f736040826109bf565b60018152600360fc1b602082015290565b611f8d906113d5565b6102a56006606160405180947f3c7376672077696474683d2234303022206865696768743d223430302220786d60208301527f6c6e733d22687474703a2f2f7777772e77332e6f72672f323030302f737667226040830152601f60f91b6060830152612002815180926020868601910161024c565b8101651e17b9bb339f60d11b8382015203016019198101845201826109bf565b604051906120316060836109bf565b604082527f6768696a6b6c6d6e6f707172737475767778797a303132333435363738392b2f6040837f4142434445464748494a4b4c4d4e4f505152535455565758595a61626364656660208201520152565b906002820180921161139157565b906020820180921161139157565b80511561217e576120ae612022565b6120ca6120c56120be8451612083565b6003900490565b611396565b916120dc6120d784612091565b611c32565b9283528091815182019060208501935b82811061212e5750505060039051068060011461211d5760021461210e575090565b603d60f81b6000199091015290565b50613d3d60f01b6001199091015290565b60036004919592939501916001603f845182828260121c16880101518453828282600c1c16880101518385015382828260061c1688010151600285015316850101516003820153019391906120ec565b506102a5611259565b612191602a611c32565b90815160011015611c71576078602183015360306121ae83611c64565b536029905b600182116121c057505090565b600f8116906010821015611c71576121f9916f181899199a1a9b1b9c1cb0b131b232b360811b901a6121f28486611c76565b5360041c90565b9060001901906121b3565b1561220b57565b60405162461bcd60e51b815260206004820152601c60248201527f4552433732313a20746f6b656e20616c7265616479206d696e746564000000006044820152606490fd5b6001600160a01b03811690811561232b576000838152600260205260409020546122f49190612288906001600160a01b031615612204565b612291846125b1565b8261231c5761229f8461264e565b6000848152600260205260409020546122c1906001600160a01b031615612204565b6001600160a01b038116600090815260036020526040902060018154019055611b79846000526002602052604060002090565b60007fddf252ad1be2c89b69c2b068fc378daa952ba7f163c4a11628f55a4df523b3ef8180a4565b6123268482612610565b61229f565b606460405162461bcd60e51b815260206004820152602060248201527f4552433732313a206d696e7420746f20746865207a65726f20616464726573736044820152fd5b9091906001600160a01b03811690816123bb575061238c826125b1565b6001600160a01b038316806123a95750506123a7915061264e565b565b036123b2575050565b6123a791612610565b6001600160a01b03841682036123d2575b5061238c565b6123db816112f3565b60001981019190821161139157600091612438612447928685526007602052604085205483810361244e575b508461241d886000526007602052604060002090565b556001600160a01b0316600090815260066020526040902090565b90600052602052604060002090565b55386123cc565b86865260066020526040862084875260205261249a604087205480612489846124388760018060a01b03166000526006602052604060002090565b556000526007602052604060002090565b5538612407565b908160209103126101be57516102a5816101ac565b6001600160a01b0391821681529116602082015260408101919091526080606082018190526102a59291019061026f565b919290803b156125a85761251893600060209460405196879586948593630a85bd0160e11b855233600486016124b6565b03926001600160a01b03165af160009181612577575b506125615761253b61191e565b8051908161255c5760405162461bcd60e51b8152806118a860048201611e8d565b602001fd5b6001600160e01b031916630a85bd0160e11b1490565b61259a91925060203d6020116125a1575b61259281836109bf565b8101906124a1565b903861252e565b503d612588565b50505050600190565b60085481600052600960205280604060002055680100000000000000008110156109e15760018101600855600854811015611c715760086000527ff3f7a9fe364faab93b216da50a3214154f22a0a2b415b23a84c8169e8b636ee30155565b9061261a826112f3565b9160018060a01b03166000526006602052604060002082600052602052806040600020556000526007602052604060002055565b6008546000198101918183116113915780600052600960205281604060002054931015611c715760086000527ff3f7a9fe364faab93b216da50a3214154f22a0a2b415b23a84c8169e8b636ee282015491831015611c71577ff3f7a9fe364faab93b216da50a3214154f22a0a2b415b23a84c8169e8b636ee3830182905560009182526009602052604080832093909355815290812055600854801561273057600019810190600854821015611c7157600860008181527ff3f7a9fe364faab93b216da50a3214154f22a0a2b415b23a84c8169e8b636ee29092019190915555565b634e487b7160e01b600052603160045260246000fdfea2646970667358221220400cb6b0fac3cc92ac0adbcec1fea9f850f402bc8a989296d912ab153cd43cba64736f6c634300081c0033",
  "devdoc": {
    "events": {
      "Approval(address,address,uint256)": {
        "details": "Emitted when `owner` enables `approved` to manage the `tokenId` token."
      },
      "ApprovalForAll(address,address,bool)": {
        "details": "Emitted when `owner` enables or disables (`approved`) `operator` to manage all of its assets."
      },
      "Transfer(address,address,uint256)": {
        "details": "Emitted when `tokenId` token is transferred from `from` to `to`."
      }
    },
    "kind": "dev",
    "methods": {
      "approve(address,uint256)": {
        "details": "See {IERC721-approve}."
      },
      "balanceOf(address)": {
        "details": "See {IERC721-balanceOf}."
      },
      "getApproved(uint256)": {
        "details": "See {IERC721-getApproved}."
      },
      "isApprovedForAll(address,address)": {
        "details": "See {IERC721-isApprovedForAll}."
      },
      "name()": {
        "details": "See {IERC721Metadata-name}."
      },
      "ownerOf(uint256)": {
        "details": "See {IERC721-ownerOf}."
      },
      "safeTransferFrom(address,address,uint256)": {
        "details": "See {IERC721-safeTransferFrom}."
      },
      "safeTransferFrom(address,address,uint256,bytes)": {
        "details": "See {IERC721-safeTransferFrom}."
      },
      "setApprovalForAll(address,bool)": {
        "details": "See {IERC721-setApprovalForAll}."
      },
      "supportsInterface(bytes4)": {
        "details": "See {IERC165-supportsInterface}."
      },
      "symbol()": {
        "details": "See {IERC721Metadata-symbol}."
      },
      "tokenByIndex(uint256)": {
        "details": "See {IERC721Enumerable-tokenByIndex}."
      },
      "tokenOfOwnerByIndex(address,uint256)": {
        "details": "See {IERC721Enumerable-tokenOfOwnerByIndex}."
      },
      "totalSupply()": {
        "details": "See {IERC721Enumerable-totalSupply}."
      },
      "transferFrom(address,address,uint256)": {
        "details": "See {IERC721-transferFrom}."
      }
    },
    "version": 1
  },
  "userdoc": {
    "kind": "user",
    "methods": {},
    "version": 1
  },
  "storageLayout": {
    "storage": [
      {
        "astId": 25,
        "contract": "contracts/YourCollectible.sol:YourCollectible",
        "label": "_name",
        "offset": 0,
        "slot": "0",
        "type": "t_string_storage"
      },
      {
        "astId": 27,
        "contract": "contracts/YourCollectible.sol:YourCollectible",
        "label": "_symbol",
        "offset": 0,
        "slot": "1",
        "type": "t_string_storage"
      },
      {
        "astId": 31,
        "contract": "contracts/YourCollectible.sol:YourCollectible",
        "label": "_owners",
        "offset": 0,
        "slot": "2",
        "type": "t_mapping(t_uint256,t_address)"
      },
      {
        "astId": 35,
        "contract": "contracts/YourCollectible.sol:YourCollectible",
        "label": "_balances",
        "offset": 0,
        "slot": "3",
        "type": "t_mapping(t_address,t_uint256)"
      },
      {
        "astId": 39,
        "contract": "contracts/YourCollectible.sol:YourCollectible",
        "label": "_tokenApprovals",
        "offset": 0,
        "slot": "4",
        "type": "t_mapping(t_uint256,t_address)"
      },
      {
        "astId": 45,
        "contract": "contracts/YourCollectible.sol:YourCollectible",
        "label": "_operatorApprovals",
        "offset": 0,
        "slot": "5",
        "type": "t_mapping(t_address,t_mapping(t_address,t_bool))"
      },
      {
        "astId": 1093,
        "contract": "contracts/YourCollectible.sol:YourCollectible",
        "label": "_ownedTokens",
        "offset": 0,
        "slot": "6",
        "type": "t_mapping(t_address,t_mapping(t_uint256,t_uint256))"
      },
      {
        "astId": 1097,
        "contract": "contracts/YourCollectible.sol:YourCollectible",
        "label": "_ownedTokensIndex",
        "offset": 0,
        "slot": "7",
        "type": "t_mapping(t_uint256,t_uint256)"
      },
      {
        "astId": 1100,
        "contract": "contracts/YourCollectible.sol:YourCollectible",
        "label": "_allTokens",
        "offset": 0,
        "slot": "8",
        "type": "t_array(t_uint256)dyn_storage"
      },
      {
        "astId": 1104,
        "contract": "contracts/YourCollectible.sol:YourCollectible",
        "label": "_allTokensIndex",
        "offset": 0,
        "slot": "9",
        "type": "t_mapping(t_uint256,t_uint256)"
      },
      {
        "astId": 3279,
        "contract": "contracts/YourCollectible.sol:YourCollectible",
        "label": "_tokenIds",
        "offset": 0,
        "slot": "10",
        "type": "t_struct(Counter)1848_storage"
      },
      {
        "astId": 3294,
        "contract": "contracts/YourCollectible.sol:YourCollectible",
        "label": "price",
        "offset": 0,
        "slot": "11",
        "type": "t_uint256"
      },
      {
        "astId": 3298,
        "contract": "contracts/YourCollectible.sol:YourCollectible",
        "label": "color",
        "offset": 0,
        "slot": "12",
        "type": "t_mapping(t_uint256,t_bytes3)"
      },
      {
        "astId": 3302,
        "contract": "contracts/YourCollectible.sol:YourCollectible",
        "label": "chubbiness",
        "offset": 0,
        "slot": "13",
        "type": "t_mapping(t_uint256,t_uint256)"
      },
      {
        "astId": 3306,
        "contract": "contracts/YourCollectible.sol:YourCollectible",
        "label": "mouthLength",
        "offset": 0,
        "slot": "14",
        "type": "t_mapping(t_uint256,t_uint256)"
      }
    ],
    "types": {
      "t_address": {
        "encoding": "inplace",
        "label": "address",
        "numberOfBytes": "20"
      },
      "t_array(t_uint256)dyn_storage": {
        "base": "t_uint256",
        "encoding": "dynamic_array",
        "label": "uint256[]",
        "numberOfBytes": "32"
      },
      "t_bool": {
        "encoding": "inplace",
        "label": "bool",
        "numberOfBytes": "1"
      },
      "t_bytes3": {
        "encoding": "inplace",
        "label": "bytes3",
        "numberOfBytes": "3"
      },
      "t_mapping(t_address,t_bool)": {
        "encoding": "mapping",
        "key": "t_address",
        "label": "mapping(address => bool)",
        "numberOfBytes": "32",
        "value": "t_bool"
      },
      "t_mapping(t_address,t_mapping(t_address,t_bool))": {
        "encoding": "mapping",
        "key": "t_address",
        "label": "mapping(address => mapping(address => bool))",
        "numberOfBytes": "32",
        "value": "t_mapping(t_address,t_bool)"
      },
      "t_mapping(t_address,t_mapping(t_uint256,t_uint256))": {
        "encoding": "mapping",
        "key": "t_address",
        "label": "mapping(address => mapping(uint256 => uint256))",
        "numberOfBytes": "32",
        "value": "t_mapping(t_uint256,t_uint256)"
      },
      "t_mapping(t_address,t_uint256)": {
        "encoding": "mapping",
        "key": "t_address",
        "label": "mapping(address => uint256)",
        "numberOfBytes": "32",
        "value": "t_uint256"
      },
      "t_mapping(t_uint256,t_address)": {
        "encoding": "mapping",
        "key": "t_uint256",
        "label": "mapping(uint256 => address)",
        "numberOfBytes": "32",
        "value": "t_address"
      },
      "t_mapping(t_uint256,t_bytes3)": {
        "encoding": "mapping",
        "key": "t_uint256",
        "label": "mapping(uint256 => bytes3)",
        "numberOfBytes": "32",
        "value": "t_bytes3"
      },
      "t_mapping(t_uint256,t_uint256)": {
        "encoding": "mapping",
        "key": "t_uint256",
        "label": "mapping(uint256 => uint256)",
        "numberOfBytes": "32",
        "value": "t_uint256"
      },
      "t_string_storage": {
        "encoding": "bytes",
        "label": "string",
        "numberOfBytes": "32"
      },
      "t_struct(Counter)1848_storage": {
        "encoding": "inplace",
        "label": "struct Counters.Counter",
        "members": [
          {
            "astId": 1847,
            "contract": "contracts/YourCollectible.sol:YourCollectible",
            "label": "_value",
            "offset": 0,
            "slot": "0",
            "type": "t_uint256"
          }
        ],
        "numberOfBytes": "32"
      },
      "t_uint256": {
        "encoding": "inplace",
        "label": "uint256",
        "numberOfBytes": "32"
      }
    }
  }
}