{
  "address": "0x975C057E5D9C06bB1d192B6168838af7dE20552b",
  "abi": [
    {
      "inputs": [
        {
          "internalType": "address",
          "name": "token_addr",
          "type": "address"
        }
      ],
      "stateMutability": "nonpayable",
      "type": "constructor"
    },
    {
      "anonymous": false,
      "inputs": [
        {
          "indexed": false,
          "internalType": "address",
          "name": "swapper",
          "type": "address"
        },
        {
          "indexed": false,
          "internalType": "string",
          "name": "txDetails",
          "type": "string"
        },
        {
          "indexed": false,
          "internalType": "uint256",
          "name": "ethInput",
          "type": "uint256"
        },
        {
          "indexed": false,
          "internalType": "uint256",
          "name": "tokenOutput",
          "type": "uint256"
        }
      ],
      "name": "EthToTokenSwap",
      "type": "event"
    },
    {
      "anonymous": false,
      "inputs": [
        {
          "indexed": false,
          "internalType": "address",
          "name": "liquidityProvider",
          "type": "address"
        },
        {
          "indexed": false,
          "internalType": "uint256",
          "name": "tokensInput",
          "type": "uint256"
        },
        {
          "indexed": false,
          "internalType": "uint256",
          "name": "ethInput",
          "type": "uint256"
        },
        {
          "indexed": false,
          "internalType": "uint256",
          "name": "liquidityMinted",
          "type": "uint256"
        }
      ],
      "name": "LiquidityProvided",
      "type": "event"
    },
    {
      "anonymous": false,
      "inputs": [
        {
          "indexed": false,
          "internalType": "address",
          "name": "liquidityRemover",
          "type": "address"
        },
        {
          "indexed": false,
          "internalType": "uint256",
          "name": "tokensOutput",
          "type": "uint256"
        },
        {
          "indexed": false,
          "internalType": "uint256",
          "name": "ethOutput",
          "type": "uint256"
        },
        {
          "indexed": false,
          "internalType": "uint256",
          "name": "liquidityWithdrawn",
          "type": "uint256"
        }
      ],
      "name": "LiquidityRemoved",
      "type": "event"
    },
    {
      "anonymous": false,
      "inputs": [
        {
          "indexed": false,
          "internalType": "address",
          "name": "swapper",
          "type": "address"
        },
        {
          "indexed": false,
          "internalType": "string",
          "name": "txDetails",
          "type": "string"
        },
        {
          "indexed": false,
          "internalType": "uint256",
          "name": "tokensInput",
          "type": "uint256"
        },
        {
          "indexed": false,
          "internalType": "uint256",
          "name": "ethOutput",
          "type": "uint256"
        }
      ],
      "name": "TokenToEthSwap",
      "type": "event"
    },
    {
      "inputs": [],
      "name": "deposit",
      "outputs": [
        {
          "internalType": "uint256",
          "name": "tokensDeposited",
          "type": "uint256"
        }
      ],
      "stateMutability": "payable",
      "type": "function"
    },
    {
      "inputs": [],
      "name": "ethToToken",
      "outputs": [
        {
          "internalType": "uint256",
          "name": "",
          "type": "uint256"
        }
      ],
      "stateMutability": "payable",
      "type": "function"
    },
    {
      "inputs": [
        {
          "internalType": "address",
          "name": "_lp",
          "type": "address"
        }
      ],
      "name": "getLiquidity",
      "outputs": [
        {
          "internalType": "uint256",
          "name": "",
          "type": "uint256"
        }
      ],
      "stateMutability": "view",
      "type": "function"
    },
    {
      "inputs": [
        {
          "internalType": "uint256",
          "name": "_tokens",
          "type": "uint256"
        }
      ],
      "name": "init",
      "outputs": [
        {
          "internalType": "uint256",
          "name": "",
          "type": "uint256"
        }
      ],
      "stateMutability": "payable",
      "type": "function"
    },
    {
      "inputs": [
        {
          "internalType": "address",
          "name": "",
          "type": "address"
        }
      ],
      "name": "liquidity",
      "outputs": [
        {
          "internalType": "uint256",
          "name": "",
          "type": "uint256"
        }
      ],
      "stateMutability": "view",
      "type": "function"
    },
    {
      "inputs": [
        {
          "internalType": "uint256",
          "name": "_xInput",
          "type": "uint256"
        },
        {
          "internalType": "uint256",
          "name": "_xReserves",
          "type": "uint256"
        },
        {
          "internalType": "uint256",
          "name": "_yReserves",
          "type": "uint256"
        }
      ],
      "name": "price",
      "outputs": [
        {
          "internalType": "uint256",
          "name": "yOutput",
          "type": "uint256"
        }
      ],
      "stateMutability": "pure",
      "type": "function"
    },
    {
      "inputs": [
        {
          "internalType": "uint256",
          "name": "_tokenInput",
          "type": "uint256"
        }
      ],
      "name": "tokenToEth",
      "outputs": [
        {
          "internalType": "uint256",
          "name": "",
          "type": "uint256"
        }
      ],
      "stateMutability": "nonpayable",
      "type": "function"
    },
    {
      "inputs": [],
      "name": "totalLiquidity",
      "outputs": [
        {
          "internalType": "uint256",
          "name": "",
          "type": "uint256"
        }
      ],
      "stateMutability": "view",
      "type": "function"
    },
    {
      "inputs": [
        {
          "internalType": "uint256",
          "name": "_amount",
          "type": "uint256"
        }
      ],
      "name": "withdraw",
      "outputs": [
        {
          "internalType": "uint256",
          "name": "eth_amount",
          "type": "uint256"
        },
        {
          "internalType": "uint256",
          "name": "token_amount",
          "type": "uint256"
        }
      ],
      "stateMutability": "nonpayable",
      "type": "function"
    }
  ],
  "transactionHash": "0x0ea28f3a70d4bd9406f91d03ea382d3bae88cba625996ff171caf829bd453d8c",
  "args": [
    "0x1724F67EeD2f16391517E3d20D6191CaA13A0002"
  ],
  "numDeployments": 1,
  "solcInputHash": "0be54ff966e0b99fbe754a08897bba31",
  "bytecode": "0x608060405234801561001057600080fd5b50604051610f23380380610f2383398101604081905261002f91610054565b600280546001600160a01b0319166001600160a01b0392909216919091179055610084565b60006020828403121561006657600080fd5b81516001600160a01b038116811461007d57600080fd5b9392505050565b610e90806100936000396000f3fe6080604052600436106100865760003560e01c8063789770f411610059578063789770f414610129578063a747b93b14610131578063b7b0422d14610167578063b8c876b11461017a578063d0e30db0146101a757600080fd5b806315770f921461008b5780632071a9f4146100b45780632e1a7d4d146100d457806370b2a30f14610109575b600080fd5b34801561009757600080fd5b506100a160005481565b6040519081526020015b60405180910390f35b3480156100c057600080fd5b506100a16100cf366004610d35565b6101af565b3480156100e057600080fd5b506100f46100ef366004610d61565b6101fd565b604080519283526020830191909152016100ab565b34801561011557600080fd5b506100a1610124366004610d61565b6104f1565b6100a161079d565b34801561013d57600080fd5b506100a161014c366004610d7a565b6001600160a01b031660009081526001602052604090205490565b6100a1610175366004610d61565b61099e565b34801561018657600080fd5b506100a1610195366004610d7a565b60016020526000908152604090205481565b6100a1610aee565b6000806101be856103e5610d08565b905060006101cc8285610d08565b905060006101e6836101e0886103e8610d08565b90610d1d565b90506101f28183610dc0565b979650505050505050565b3360009081526001602052604081205481908311156102895760405162461bcd60e51b815260206004820152603c60248201527f77697468647261773a2073656e64657220646f6573206e6f742068617665206560448201527f6e6f756768206c697175696469747920746f2077697468647261772e0000000060648201526084015b60405180910390fd5b6002546040516370a0823160e01b815230600482015247916000916001600160a01b03909116906370a0823190602401602060405180830381865afa1580156102d6573d6000803e3d6000fd5b505050506040513d601f19601f820116820180604052508101906102fa9190610de2565b600080549192509061030c8785610d08565b6103169190610dc0565b60008054919250906103288885610d08565b6103329190610dc0565b3360009081526001602052604090205490915061034f9088610d29565b336000908152600160205260408120919091555461036d9088610d29565b6000908155604051339084908381818185875af1925050503d80600081146103b1576040519150601f19603f3d011682016040523d82523d6000602084013e6103b6565b606091505b505090508061041e5760405162461bcd60e51b815260206004820152602e60248201527f776974686472617728293a2072657665727420696e207472616e73666572726960448201526d6e672065746820746f20796f752160901b6064820152608401610280565b60025460405163a9059cbb60e01b8152336004820152602481018490526001600160a01b039091169063a9059cbb906044016020604051808303816000875af115801561046f573d6000803e3d6000fd5b505050506040513d601f19601f820116820180604052508101906104939190610dfb565b61049c57600080fd5b60408051338152602081018a9052908101849052606081018390527f1dc8bb69df2b8e91fbdcbfcf93d951b3f0000f085a95fe3f7946d6161439245d9060800160405180910390a15090969095509350505050565b60008082116105395760405162461bcd60e51b815260206004820152601460248201527363616e6e6f742073776170203020746f6b656e7360601b6044820152606401610280565b6002546040516370a0823160e01b81523060048201526000916001600160a01b0316906370a0823190602401602060405180830381865afa158015610582573d6000803e3d6000fd5b505050506040513d601f19601f820116820180604052508101906105a69190610de2565b905060006105b58483476101af565b6002546040516323b872dd60e01b8152336004820152306024820152604481018790529192506001600160a01b0316906323b872dd906064016020604051808303816000875af115801561060d573d6000803e3d6000fd5b505050506040513d601f19601f820116820180604052508101906106319190610dfb565b61067d5760405162461bcd60e51b815260206004820152601c60248201527f746f6b656e546f45746828293a20726576657274656420737761702e000000006044820152606401610280565b604051600090339083908381818185875af1925050503d80600081146106bf576040519150601f19603f3d011682016040523d82523d6000602084013e6106c4565b606091505b505090508061072c5760405162461bcd60e51b815260206004820152602e60248201527f746f6b656e546f4574683a2072657665727420696e207472616e73666572726960448201526d6e672065746820746f20796f752160901b6064820152608401610280565b60408051338152608060208201819052600f908201526e084c2d8d8dededce640e8de408aa89608b1b60a0820152908101839052606081018690527f7536309ea3be068750ddab69b17222930264bf16637e5ccb83316b4b3d9267459060c0015b60405180910390a1509392505050565b60008034116107e25760405162461bcd60e51b81526020600482015260116024820152700c6c2dcdcdee840e6eec2e04060408aa89607b1b6044820152606401610280565b60006107ee4734610d29565b6002546040516370a0823160e01b81523060048201529192506000916001600160a01b03909116906370a0823190602401602060405180830381865afa15801561083c573d6000803e3d6000fd5b505050506040513d601f19601f820116820180604052508101906108609190610de2565b9050600061086f3484846101af565b60025460405163a9059cbb60e01b8152336004820152602481018390529192506001600160a01b03169063a9059cbb906044016020604051808303816000875af11580156108c1573d6000803e3d6000fd5b505050506040513d601f19601f820116820180604052508101906108e59190610dfb565b6109315760405162461bcd60e51b815260206004820152601c60248201527f657468546f546f6b656e28293a20726576657274656420737761702e000000006044820152606401610280565b60408051338152608060208201819052600f908201526e45746820746f2042616c6c6f6f6e7360881b60a082015234818301526060810183905290517f3358768c94c6d0c84dbfcedabf8e58d32d4c475f61b1b2600828bbc30dbf01629181900360c00190a19392505050565b60008054156109f95760405162461bcd60e51b815260206004820152602160248201527f4445583a20696e6974202d20616c726561647920686173206c697175696469746044820152607960f81b6064820152608401610280565b4760008181553380825260016020526040918290209290925560025490516323b872dd60e01b81526004810192909252306024830152604482018490526001600160a01b0316906323b872dd906064016020604051808303816000875af1158015610a68573d6000803e3d6000fd5b505050506040513d601f19601f82011682018060405250810190610a8c9190610dfb565b610ae65760405162461bcd60e51b815260206004820152602560248201527f4445583a20696e6974202d207472616e7366657220646964206e6f74207472616044820152641b9cd858dd60da1b6064820152608401610280565b505060005490565b6000803411610b3f5760405162461bcd60e51b815260206004820152601f60248201527f4d7573742073656e642076616c7565207768656e206465706f736974696e67006044820152606401610280565b6000610b4b4734610d29565b6002546040516370a0823160e01b81523060048201529192506000916001600160a01b03909116906370a0823190602401602060405180830381865afa158015610b99573d6000803e3d6000fd5b505050506040513d601f19601f82011682018060405250810190610bbd9190610de2565b90506000610bdb600184610bd13486610d08565b6101e09190610dc0565b9050600083610bf560005434610d0890919063ffffffff16565b610bff9190610dc0565b33600090815260016020526040902054909150610c1c9082610d1d565b3360009081526001602052604081209190915554610c3a9082610d1d565b6000556002546040516323b872dd60e01b8152336004820152306024820152604481018490526001600160a01b03909116906323b872dd906064016020604051808303816000875af1158015610c94573d6000803e3d6000fd5b505050506040513d601f19601f82011682018060405250810190610cb89190610dfb565b610cc157600080fd5b60408051338152602081018390523491810191909152606081018390527f3bca7014f4c0ccc8016338c79f4c00e82068dbadaf4f01ca5449040fdd39f5009060800161078d565b6000610d148284610e1d565b90505b92915050565b6000610d148284610e34565b6000610d148284610e47565b600080600060608486031215610d4a57600080fd5b505081359360208301359350604090920135919050565b600060208284031215610d7357600080fd5b5035919050565b600060208284031215610d8c57600080fd5b81356001600160a01b0381168114610da357600080fd5b9392505050565b634e487b7160e01b600052601160045260246000fd5b600082610ddd57634e487b7160e01b600052601260045260246000fd5b500490565b600060208284031215610df457600080fd5b5051919050565b600060208284031215610e0d57600080fd5b81518015158114610da357600080fd5b8082028115828204841417610d1757610d17610daa565b80820180821115610d1757610d17610daa565b81810381811115610d1757610d17610daa56fea264697066735822122043e53d88e0b86a4827712e074fc117e6143f2dcabbbf2b9ef69805a2c776e33364736f6c63430008110033",
  "devdoc": {
    "kind": "dev",
    "methods": {},
    "version": 1
  },
  "userdoc": {
    "kind": "user",
    "methods": {},
    "version": 1
  },
  "storageLayout": {
    "storage": [
      {
        "astId": 396,
        "contract": "contracts/DEX.sol:DEX",
        "label": "totalLiquidity",
        "offset": 0,
        "slot": "0",
        "type": "t_uint256"
      },
      {
        "astId": 400,
        "contract": "contracts/DEX.sol:DEX",
        "label": "liquidity",
        "offset": 0,
        "slot": "1",
        "type": "t_mapping(t_address,t_uint256)"
      },
      {
        "astId": 406,
        "contract": "contracts/DEX.sol:DEX",
        "label": "token",
        "offset": 0,
        "slot": "2",
        "type": "t_contract(IERC20)77"
      }
    ],
    "types": {
      "t_address": {
        "encoding": "inplace",
        "label": "address",
        "numberOfBytes": "20"
      },
      "t_contract(IERC20)77": {
        "encoding": "inplace",
        "label": "contract IERC20",
        "numberOfBytes": "20"
      },
      "t_mapping(t_address,t_uint256)": {
        "encoding": "mapping",
        "key": "t_address",
        "label": "mapping(address => uint256)",
        "numberOfBytes": "32",
        "value": "t_uint256"
      },
      "t_uint256": {
        "encoding": "inplace",
        "label": "uint256",
        "numberOfBytes": "32"
      }
    }
  }
}