{
  "address": "0xBB4ab1eEaeF53bEce1014DD789a3722529814809",
  "abi": [
    {
      "inputs": [
        {
          "internalType": "address",
          "name": "tokenAddress",
          "type": "address"
        }
      ],
      "stateMutability": "nonpayable",
      "type": "constructor"
    },
    {
      "anonymous": false,
      "inputs": [
        {
          "indexed": false,
          "internalType": "address",
          "name": "buyer",
          "type": "address"
        },
        {
          "indexed": false,
          "internalType": "uint256",
          "name": "amountOfETH",
          "type": "uint256"
        },
        {
          "indexed": false,
          "internalType": "uint256",
          "name": "amountOfTokens",
          "type": "uint256"
        }
      ],
      "name": "BuyTokens",
      "type": "event"
    },
    {
      "anonymous": false,
      "inputs": [
        {
          "indexed": true,
          "internalType": "address",
          "name": "previousOwner",
          "type": "address"
        },
        {
          "indexed": true,
          "internalType": "address",
          "name": "newOwner",
          "type": "address"
        }
      ],
      "name": "OwnershipTransferred",
      "type": "event"
    },
    {
      "anonymous": false,
      "inputs": [
        {
          "indexed": false,
          "internalType": "address",
          "name": "buyer",
          "type": "address"
        },
        {
          "indexed": false,
          "internalType": "uint256",
          "name": "amountOfETH",
          "type": "uint256"
        },
        {
          "indexed": false,
          "internalType": "uint256",
          "name": "amountOfTokens",
          "type": "uint256"
        }
      ],
      "name": "SellTokens",
      "type": "event"
    },
    {
      "inputs": [],
      "name": "buyTokens",
      "outputs": [],
      "stateMutability": "payable",
      "type": "function"
    },
    {
      "inputs": [],
      "name": "owner",
      "outputs": [
        {
          "internalType": "address",
          "name": "",
          "type": "address"
        }
      ],
      "stateMutability": "view",
      "type": "function"
    },
    {
      "inputs": [],
      "name": "renounceOwnership",
      "outputs": [],
      "stateMutability": "nonpayable",
      "type": "function"
    },
    {
      "inputs": [
        {
          "internalType": "uint256",
          "name": "amount",
          "type": "uint256"
        }
      ],
      "name": "sellTokens",
      "outputs": [],
      "stateMutability": "nonpayable",
      "type": "function"
    },
    {
      "inputs": [],
      "name": "tokensPerEth",
      "outputs": [
        {
          "internalType": "uint256",
          "name": "",
          "type": "uint256"
        }
      ],
      "stateMutability": "view",
      "type": "function"
    },
    {
      "inputs": [
        {
          "internalType": "address",
          "name": "newOwner",
          "type": "address"
        }
      ],
      "name": "transferOwnership",
      "outputs": [],
      "stateMutability": "nonpayable",
      "type": "function"
    },
    {
      "inputs": [],
      "name": "withdraw",
      "outputs": [],
      "stateMutability": "nonpayable",
      "type": "function"
    },
    {
      "inputs": [],
      "name": "yourToken",
      "outputs": [
        {
          "internalType": "contract YourToken",
          "name": "",
          "type": "address"
        }
      ],
      "stateMutability": "view",
      "type": "function"
    }
  ],
  "transactionHash": "0xd55561080463a625be33e819e2a5fc227b68b5e96d9c213441ac246e1a868aca",
  "args": [
    "0x98530aa1eb480930C86b592F2B4890b4A9616486"
  ],
  "numDeployments": 1,
  "solcInputHash": "7b599d9a106f609217778967d4ee2b5d",
  "bytecode": "0x608060405234801561001057600080fd5b50604051610b0b380380610b0b83398101604081905261002f916100ad565b6100383361005d565b600180546001600160a01b0319166001600160a01b03929092169190911790556100db565b600080546001600160a01b038381166001600160a01b0319831681178455604051919092169283917f8be0079c531659141344cd1fd0a4f28419497f9722a3daafe3b4186f6b6457e09190a35050565b6000602082840312156100be578081fd5b81516001600160a01b03811681146100d4578182fd5b9392505050565b610a21806100ea6000396000f3fe60806040526004361061007b5760003560e01c80638da5cb5b1161004e5780638da5cb5b14610109578063cbdd69b514610127578063d0febe4c1461014a578063f2fde38b1461015257600080fd5b80633ccfd60b146100805780636c11bcd314610097578063715018a6146100b75780637879e84b146100cc575b600080fd5b34801561008c57600080fd5b50610095610172565b005b3480156100a357600080fd5b506100956100b2366004610970565b610272565b3480156100c357600080fd5b50610095610588565b3480156100d857600080fd5b506001546100ec906001600160a01b031681565b6040516001600160a01b0390911681526020015b60405180910390f35b34801561011557600080fd5b506000546001600160a01b03166100ec565b34801561013357600080fd5b5061013c606481565b604051908152602001610100565b61009561059c565b34801561015e57600080fd5b5061009561016d366004610922565b6107ff565b61017a610878565b47806101de5760405162461bcd60e51b815260206004820152602860248201527f56656e646f7220646f6573206e6f74206861766520616e792045544820746f20604482015267776974686472617760c01b60648201526084015b60405180910390fd5b6040513390600090829084908381818185875af1925050503d8060008114610222576040519150601f19603f3d011682016040523d82523d6000602084013e610227565b606091505b505090508061026d5760405162461bcd60e51b81526020600482015260126024820152714661696c656420746f20776974686472617760701b60448201526064016101d5565b505050565b600081116102d25760405162461bcd60e51b815260206004820152602760248201527f4d7573742073656c6c206120746f6b656e20616d6f756e7420677265617465726044820152660207468616e20360cc1b60648201526084016101d5565b6001546040516370a0823160e01b81523360048201819052916000916001600160a01b03909116906370a082319060240160206040518083038186803b15801561031b57600080fd5b505afa15801561032f573d6000803e3d6000fd5b505050506040513d601f19601f820116820180604052508101906103539190610988565b9050828110156103a55760405162461bcd60e51b815260206004820181905260248201527f5573657220646f6573206e6f74206861766520656e6f75676820746f6b656e7360448201526064016101d5565b60006103b26064856109a0565b6001546040516323b872dd60e01b81526001600160a01b03868116600483015230602483015260448201889052929350600092909116906323b872dd90606401602060405180830381600087803b15801561040c57600080fd5b505af1158015610420573d6000803e3d6000fd5b505050506040513d601f19601f820116820180604052508101906104449190610950565b9050806104935760405162461bcd60e51b815260206004820152601960248201527f4661696c656420746f207472616e7366657220746f6b656e730000000000000060448201526064016101d5565b6000846001600160a01b03168360405160006040518083038185875af1925050503d80600081146104e0576040519150601f19603f3d011682016040523d82523d6000602084013e6104e5565b606091505b50509050806105365760405162461bcd60e51b815260206004820152601760248201527f4661696c656420746f2073656e64206261636b2065746800000000000000000060448201526064016101d5565b604080516001600160a01b0387168152602081018590529081018790527fa24838acd4af5195a2396965dae5abf54e84e8c19f5698bb966ae64e29994ee59060600160405180910390a1505050505050565b610590610878565b61059a60006108d2565b565b34806105ea5760405162461bcd60e51b815260206004820152601b60248201527f53656e6420736f6d652045544820746f2062757920746f6b656e73000000000060448201526064016101d5565b60006105f76064836109c0565b6001546040516370a0823160e01b81523060048201529192506000916001600160a01b03909116906370a082319060240160206040518083038186803b15801561064057600080fd5b505afa158015610654573d6000803e3d6000fd5b505050506040513d601f19601f820116820180604052508101906106789190610988565b9050818110156106d55760405162461bcd60e51b815260206004820152602260248201527f56656e646f7220646f6573206e6f74206861766520656e6f75676820746f6b656044820152616e7360f01b60648201526084016101d5565b60015460405163a9059cbb60e01b8152336004820181905260248201859052916000916001600160a01b039091169063a9059cbb90604401602060405180830381600087803b15801561072757600080fd5b505af115801561073b573d6000803e3d6000fd5b505050506040513d601f19601f8201168201806040525081019061075f9190610950565b9050806107ae5760405162461bcd60e51b815260206004820152601860248201527f4661696c656420746f207472616e7366657220746f6b656e000000000000000060448201526064016101d5565b604080516001600160a01b0384168152602081018790529081018590527f0a37b72bb67eee30e09084cf386f8a17817c57f620c3ab95fb25d6a20356ec779060600160405180910390a15050505050565b610807610878565b6001600160a01b03811661086c5760405162461bcd60e51b815260206004820152602660248201527f4f776e61626c653a206e6577206f776e657220697320746865207a65726f206160448201526564647265737360d01b60648201526084016101d5565b610875816108d2565b50565b6000546001600160a01b0316331461059a5760405162461bcd60e51b815260206004820181905260248201527f4f776e61626c653a2063616c6c6572206973206e6f7420746865206f776e657260448201526064016101d5565b600080546001600160a01b038381166001600160a01b0319831681178455604051919092169283917f8be0079c531659141344cd1fd0a4f28419497f9722a3daafe3b4186f6b6457e09190a35050565b600060208284031215610933578081fd5b81356001600160a01b0381168114610949578182fd5b9392505050565b600060208284031215610961578081fd5b81518015158114610949578182fd5b600060208284031215610981578081fd5b5035919050565b600060208284031215610999578081fd5b5051919050565b6000826109bb57634e487b7160e01b81526012600452602481fd5b500490565b60008160001904831182151516156109e657634e487b7160e01b81526011600452602481fd5b50029056fea2646970667358221220cdb9a4ac2e0f74d7dbc69fc650befea45140fdc96ca09ecb7db2a046bd450be464736f6c63430008040033",
  "devdoc": {
    "kind": "dev",
    "methods": {
      "owner()": {
        "details": "Returns the address of the current owner."
      },
      "renounceOwnership()": {
        "details": "Leaves the contract without owner. It will not be possible to call `onlyOwner` functions anymore. Can only be called by the current owner. NOTE: Renouncing ownership will leave the contract without an owner, thereby removing any functionality that is only available to the owner."
      },
      "transferOwnership(address)": {
        "details": "Transfers ownership of the contract to a new account (`newOwner`). Can only be called by the current owner."
      }
    },
    "version": 1
  },
  "userdoc": {
    "kind": "user",
    "methods": {
      "buyTokens()": {
        "notice": "Allow users to buy tokens"
      },
      "sellTokens(uint256)": {
        "notice": "Allow users to sell tokens back to the vendor"
      },
      "tokensPerEth()": {
        "notice": "Our token price"
      },
      "withdraw()": {
        "notice": "Allow the owner to withdraw ETH"
      },
      "yourToken()": {
        "notice": "Reference to our ERC20 token contract"
      }
    },
    "version": 1
  },
  "storageLayout": {
    "storage": [
      {
        "astId": 7,
        "contract": "contracts/Vendor.sol:Vendor",
        "label": "_owner",
        "offset": 0,
        "slot": "0",
        "type": "t_address"
      },
      {
        "astId": 834,
        "contract": "contracts/Vendor.sol:Vendor",
        "label": "yourToken",
        "offset": 0,
        "slot": "1",
        "type": "t_contract(YourToken)1072"
      }
    ],
    "types": {
      "t_address": {
        "encoding": "inplace",
        "label": "address",
        "numberOfBytes": "20"
      },
      "t_contract(YourToken)1072": {
        "encoding": "inplace",
        "label": "contract YourToken",
        "numberOfBytes": "20"
      }
    }
  }
}