{
  "address": "0x095Aa8ff93231A566718A768f4A71325E42cB1c2",
  "abi": [
    {
      "anonymous": false,
      "inputs": [
        {
          "indexed": false,
          "internalType": "address",
          "name": "",
          "type": "address"
        }
      ],
      "name": "Challenged",
      "type": "event"
    },
    {
      "anonymous": false,
      "inputs": [
        {
          "indexed": false,
          "internalType": "address",
          "name": "",
          "type": "address"
        }
      ],
      "name": "Closed",
      "type": "event"
    },
    {
      "anonymous": false,
      "inputs": [
        {
          "indexed": false,
          "internalType": "address",
          "name": "",
          "type": "address"
        },
        {
          "indexed": false,
          "internalType": "uint256",
          "name": "",
          "type": "uint256"
        }
      ],
      "name": "Opened",
      "type": "event"
    },
    {
      "anonymous": false,
      "inputs": [
        {
          "indexed": true,
          "internalType": "address",
          "name": "previousOwner",
          "type": "address"
        },
        {
          "indexed": true,
          "internalType": "address",
          "name": "newOwner",
          "type": "address"
        }
      ],
      "name": "OwnershipTransferred",
      "type": "event"
    },
    {
      "anonymous": false,
      "inputs": [
        {
          "indexed": false,
          "internalType": "address",
          "name": "",
          "type": "address"
        },
        {
          "indexed": false,
          "internalType": "uint256",
          "name": "",
          "type": "uint256"
        }
      ],
      "name": "Withdrawn",
      "type": "event"
    },
    {
      "inputs": [],
      "name": "challengeChannel",
      "outputs": [],
      "stateMutability": "nonpayable",
      "type": "function"
    },
    {
      "inputs": [],
      "name": "defundChannel",
      "outputs": [],
      "stateMutability": "nonpayable",
      "type": "function"
    },
    {
      "inputs": [],
      "name": "fundChannel",
      "outputs": [],
      "stateMutability": "payable",
      "type": "function"
    },
    {
      "inputs": [],
      "name": "owner",
      "outputs": [
        {
          "internalType": "address",
          "name": "",
          "type": "address"
        }
      ],
      "stateMutability": "view",
      "type": "function"
    },
    {
      "inputs": [],
      "name": "renounceOwnership",
      "outputs": [],
      "stateMutability": "nonpayable",
      "type": "function"
    },
    {
      "inputs": [
        {
          "internalType": "address",
          "name": "channel",
          "type": "address"
        }
      ],
      "name": "timeLeft",
      "outputs": [
        {
          "internalType": "uint256",
          "name": "",
          "type": "uint256"
        }
      ],
      "stateMutability": "view",
      "type": "function"
    },
    {
      "inputs": [
        {
          "internalType": "address",
          "name": "newOwner",
          "type": "address"
        }
      ],
      "name": "transferOwnership",
      "outputs": [],
      "stateMutability": "nonpayable",
      "type": "function"
    },
    {
      "inputs": [
        {
          "components": [
            {
              "internalType": "uint256",
              "name": "updatedBalance",
              "type": "uint256"
            },
            {
              "components": [
                {
                  "internalType": "bytes32",
                  "name": "r",
                  "type": "bytes32"
                },
                {
                  "internalType": "bytes32",
                  "name": "s",
                  "type": "bytes32"
                },
                {
                  "internalType": "uint8",
                  "name": "v",
                  "type": "uint8"
                }
              ],
              "internalType": "struct Streamer.Signature",
              "name": "sig",
              "type": "tuple"
            }
          ],
          "internalType": "struct Streamer.Voucher",
          "name": "voucher",
          "type": "tuple"
        }
      ],
      "name": "withdrawEarnings",
      "outputs": [],
      "stateMutability": "nonpayable",
      "type": "function"
    }
  ],
  "transactionHash": "0x28ec9f5d5c237311c939bb59638d024e500e7e87facba8edcb101102c4d5fa41",
  "args": [],
  "numDeployments": 1,
  "solcInputHash": "10a2a48c001e05713ac5e47d50237c7a",
  "bytecode": "0x608060405234801561001057600080fd5b5061001a3361001f565b61006f565b600080546001600160a01b038381166001600160a01b0319831681178455604051919092169283917f8be0079c531659141344cd1fd0a4f28419497f9722a3daafe3b4186f6b6457e09190a35050565b6108a68061007e6000396000f3fe60806040526004361061007b5760003560e01c806388a025661161004e57806388a02566146100e75780638da5cb5b14610107578063bc8641b11461012f578063f2fde38b1461014457600080fd5b8063157f83ad146100805780631e400d601461008a578063405c649c1461009f578063715018a6146100d2575b600080fd5b610088610164565b005b34801561009657600080fd5b5061008861025b565b3480156100ab57600080fd5b506100bf6100ba3660046107c5565b61032c565b6040519081526020015b60405180910390f35b3480156100de57600080fd5b506100886103dc565b3480156100f357600080fd5b506100886101023660046107f3565b6103f0565b34801561011357600080fd5b506000546040516001600160a01b0390911681526020016100c9565b34801561013b57600080fd5b506100886105f8565b34801561015057600080fd5b5061008861015f3660046107c5565b6106a2565b600034116101af5760405162461bcd60e51b815260206004820152601360248201527246756e6473206e6f742070726f76696465642160681b60448201526064015b60405180910390fd5b336000908152600160205260409020541561020c5760405162461bcd60e51b815260206004820152601d60248201527f41206368616e6e656c20697320616c72656164792072756e6e696e672100000060448201526064016101a6565b3360008181526001602090815260409182902034908190558251938452908301527fc4b27f09c64550fd678a5b3c3a00f454814732e346e0f1c79d0add8f980346de91015b60405180910390a1565b6102643361032c565b156102b15760405162461bcd60e51b815260206004820152601c60248201527f4368616e6e656c2063616e277420626520636c6f73656420796574210000000060448201526064016101a6565b3360008181526001602052604080822054905181156108fc0292818181858888f193505050501580156102e8573d6000803e3d6000fd5b503360008181526001602090815260408083209290925590519182527f13607bf9d2dd20e1f3a7daf47ab12856f8aad65e6ae7e2c75ace3d0c424a40e89101610251565b6001600160a01b03811660009081526002602052604081205461038a5760405162461bcd60e51b81526020600482015260166024820152756368616e6e656c206973206e6f7420636c6f73696e6760501b60448201526064016101a6565b6001600160a01b0382166000908152600260205260409020544211156103b257506000919050565b6001600160a01b0382166000908152600260205260409020546103d6904290610843565b92915050565b6103e461071b565b6103ee6000610775565b565b6103f861071b565b60408051823560208083019190915282518083038201815282840190935282519201919091207f19457468657265756d205369676e6564204d6573736167653a0a3332000000006060830152607c820181905290600090609c0160408051601f19818403018152919052805160208201209091506000600182610481608088016060890161080a565b604080516000815260208082018084529490945260ff9092168282015291880135606082015290870135608082015260a0016020604051602081039080840390855afa1580156104d5573d6000803e3d6000fd5b505060408051601f1901516001600160a01b03811660009081526001602052919091205490925086351090506105455760405162461bcd60e51b8152602060048201526015602482015274496e73756666696369656e742062616c616e63652160581b60448201526064016101a6565b6001600160a01b03811660009081526001602052604081205461056a90873590610843565b604051909150339082156108fc029083906000818181858888f1935050505015801561059a573d6000803e3d6000fd5b506001600160a01b03821660008181526001602090815260409182902089359055815192835282018390527f7084f5476618d8e60b11ef0d7d3f06914655adb8793e28ff7f018d4c76d505d5910160405180910390a1505050505050565b336000908152600160205260409020546106545760405162461bcd60e51b815260206004820152601c60248201527f5468657265206973206e6f206368616e6e656c2072756e6e696e67210000000060448201526064016101a6565b61065f42601e61082b565b3360008181526002602090815260409182902093909355519081527f98027b38153f995c4b802a5c7e6365bee3addb25af6b29818c0c304684d8052c9101610251565b6106aa61071b565b6001600160a01b03811661070f5760405162461bcd60e51b815260206004820152602660248201527f4f776e61626c653a206e6577206f776e657220697320746865207a65726f206160448201526564647265737360d01b60648201526084016101a6565b61071881610775565b50565b6000546001600160a01b031633146103ee5760405162461bcd60e51b815260206004820181905260248201527f4f776e61626c653a2063616c6c6572206973206e6f7420746865206f776e657260448201526064016101a6565b600080546001600160a01b038381166001600160a01b0319831681178455604051919092169283917f8be0079c531659141344cd1fd0a4f28419497f9722a3daafe3b4186f6b6457e09190a35050565b6000602082840312156107d6578081fd5b81356001600160a01b03811681146107ec578182fd5b9392505050565b600060808284031215610804578081fd5b50919050565b60006020828403121561081b578081fd5b813560ff811681146107ec578182fd5b6000821982111561083e5761083e61085a565b500190565b6000828210156108555761085561085a565b500390565b634e487b7160e01b600052601160045260246000fdfea26469706673582212205adde4d640d5160be96a44394605413a9322b4c6ff040f597207b5ee4951d11d64736f6c63430008040033",
  "devdoc": {
    "kind": "dev",
    "methods": {
      "owner()": {
        "details": "Returns the address of the current owner."
      },
      "renounceOwnership()": {
        "details": "Leaves the contract without owner. It will not be possible to call `onlyOwner` functions anymore. Can only be called by the current owner. NOTE: Renouncing ownership will leave the contract without an owner, thereby removing any functionality that is only available to the owner."
      },
      "transferOwnership(address)": {
        "details": "Transfers ownership of the contract to a new account (`newOwner`). Can only be called by the current owner."
      }
    },
    "version": 1
  },
  "userdoc": {
    "kind": "user",
    "methods": {},
    "version": 1
  },
  "storageLayout": {
    "storage": [
      {
        "astId": 7,
        "contract": "contracts/Streamer.sol:Streamer",
        "label": "_owner",
        "offset": 0,
        "slot": "0",
        "type": "t_address"
      },
      {
        "astId": 177,
        "contract": "contracts/Streamer.sol:Streamer",
        "label": "balances",
        "offset": 0,
        "slot": "1",
        "type": "t_mapping(t_address,t_uint256)"
      },
      {
        "astId": 181,
        "contract": "contracts/Streamer.sol:Streamer",
        "label": "canCloseAt",
        "offset": 0,
        "slot": "2",
        "type": "t_mapping(t_address,t_uint256)"
      }
    ],
    "types": {
      "t_address": {
        "encoding": "inplace",
        "label": "address",
        "numberOfBytes": "20"
      },
      "t_mapping(t_address,t_uint256)": {
        "encoding": "mapping",
        "key": "t_address",
        "label": "mapping(address => uint256)",
        "numberOfBytes": "32",
        "value": "t_uint256"
      },
      "t_uint256": {
        "encoding": "inplace",
        "label": "uint256",
        "numberOfBytes": "32"
      }
    }
  }
}