{
  "address": "0x71118700B3C77c1177898790E4c55e4A2E981e4b",
  "abi": [
    {
      "inputs": [
        {
          "internalType": "uint256",
          "name": "_chainId",
          "type": "uint256"
        },
        {
          "internalType": "address[]",
          "name": "_owners",
          "type": "address[]"
        },
        {
          "internalType": "uint256",
          "name": "_signaturesRequired",
          "type": "uint256"
        }
      ],
      "stateMutability": "nonpayable",
      "type": "constructor"
    },
    {
      "anonymous": false,
      "inputs": [
        {
          "indexed": true,
          "internalType": "address",
          "name": "",
          "type": "address"
        }
      ],
      "name": "CloseStream",
      "type": "event"
    },
    {
      "anonymous": false,
      "inputs": [
        {
          "indexed": true,
          "internalType": "address",
          "name": "sender",
          "type": "address"
        },
        {
          "indexed": false,
          "internalType": "uint256",
          "name": "amount",
          "type": "uint256"
        },
        {
          "indexed": false,
          "internalType": "uint256",
          "name": "balance",
          "type": "uint256"
        }
      ],
      "name": "Deposit",
      "type": "event"
    },
    {
      "anonymous": false,
      "inputs": [
        {
          "indexed": true,
          "internalType": "address",
          "name": "owner",
          "type": "address"
        },
        {
          "indexed": false,
          "internalType": "address payable",
          "name": "to",
          "type": "address"
        },
        {
          "indexed": false,
          "internalType": "uint256",
          "name": "value",
          "type": "uint256"
        },
        {
          "indexed": false,
          "internalType": "bytes",
          "name": "data",
          "type": "bytes"
        },
        {
          "indexed": false,
          "internalType": "uint256",
          "name": "nonce",
          "type": "uint256"
        },
        {
          "indexed": false,
          "internalType": "bytes32",
          "name": "hash",
          "type": "bytes32"
        },
        {
          "indexed": false,
          "internalType": "bytes",
          "name": "result",
          "type": "bytes"
        }
      ],
      "name": "ExecuteTransaction",
      "type": "event"
    },
    {
      "anonymous": false,
      "inputs": [
        {
          "indexed": true,
          "internalType": "address",
          "name": "",
          "type": "address"
        },
        {
          "indexed": false,
          "internalType": "uint256",
          "name": "",
          "type": "uint256"
        },
        {
          "indexed": false,
          "internalType": "uint256",
          "name": "",
          "type": "uint256"
        }
      ],
      "name": "OpenStream",
      "type": "event"
    },
    {
      "anonymous": false,
      "inputs": [
        {
          "indexed": true,
          "internalType": "address",
          "name": "owner",
          "type": "address"
        },
        {
          "indexed": false,
          "internalType": "bool",
          "name": "added",
          "type": "bool"
        }
      ],
      "name": "Owner",
      "type": "event"
    },
    {
      "anonymous": false,
      "inputs": [
        {
          "indexed": true,
          "internalType": "address",
          "name": "",
          "type": "address"
        },
        {
          "indexed": false,
          "internalType": "uint256",
          "name": "",
          "type": "uint256"
        },
        {
          "indexed": false,
          "internalType": "string",
          "name": "",
          "type": "string"
        }
      ],
      "name": "Withdraw",
      "type": "event"
    },
    {
      "inputs": [
        {
          "internalType": "address",
          "name": "newSigner",
          "type": "address"
        },
        {
          "internalType": "uint256",
          "name": "newSignaturesRequired",
          "type": "uint256"
        }
      ],
      "name": "addSigner",
      "outputs": [],
      "stateMutability": "nonpayable",
      "type": "function"
    },
    {
      "inputs": [],
      "name": "chainId",
      "outputs": [
        {
          "internalType": "uint256",
          "name": "",
          "type": "uint256"
        }
      ],
      "stateMutability": "view",
      "type": "function"
    },
    {
      "inputs": [
        {
          "internalType": "address payable",
          "name": "to",
          "type": "address"
        }
      ],
      "name": "closeStream",
      "outputs": [],
      "stateMutability": "nonpayable",
      "type": "function"
    },
    {
      "inputs": [
        {
          "internalType": "address payable",
          "name": "to",
          "type": "address"
        },
        {
          "internalType": "uint256",
          "name": "value",
          "type": "uint256"
        },
        {
          "internalType": "bytes",
          "name": "data",
          "type": "bytes"
        },
        {
          "internalType": "bytes[]",
          "name": "signatures",
          "type": "bytes[]"
        }
      ],
      "name": "executeTransaction",
      "outputs": [
        {
          "internalType": "bytes",
          "name": "",
          "type": "bytes"
        }
      ],
      "stateMutability": "nonpayable",
      "type": "function"
    },
    {
      "inputs": [
        {
          "internalType": "uint256",
          "name": "_nonce",
          "type": "uint256"
        },
        {
          "internalType": "address",
          "name": "to",
          "type": "address"
        },
        {
          "internalType": "uint256",
          "name": "value",
          "type": "uint256"
        },
        {
          "internalType": "bytes",
          "name": "data",
          "type": "bytes"
        }
      ],
      "name": "getTransactionHash",
      "outputs": [
        {
          "internalType": "bytes32",
          "name": "",
          "type": "bytes32"
        }
      ],
      "stateMutability": "view",
      "type": "function"
    },
    {
      "inputs": [
        {
          "internalType": "address",
          "name": "",
          "type": "address"
        }
      ],
      "name": "isOwner",
      "outputs": [
        {
          "internalType": "bool",
          "name": "",
          "type": "bool"
        }
      ],
      "stateMutability": "view",
      "type": "function"
    },
    {
      "inputs": [],
      "name": "nonce",
      "outputs": [
        {
          "internalType": "uint256",
          "name": "",
          "type": "uint256"
        }
      ],
      "stateMutability": "view",
      "type": "function"
    },
    {
      "inputs": [
        {
          "internalType": "address",
          "name": "to",
          "type": "address"
        },
        {
          "internalType": "uint256",
          "name": "amount",
          "type": "uint256"
        },
        {
          "internalType": "uint256",
          "name": "frequency",
          "type": "uint256"
        }
      ],
      "name": "openStream",
      "outputs": [],
      "stateMutability": "nonpayable",
      "type": "function"
    },
    {
      "inputs": [
        {
          "internalType": "bytes32",
          "name": "_hash",
          "type": "bytes32"
        },
        {
          "internalType": "bytes",
          "name": "_signature",
          "type": "bytes"
        }
      ],
      "name": "recover",
      "outputs": [
        {
          "internalType": "address",
          "name": "",
          "type": "address"
        }
      ],
      "stateMutability": "pure",
      "type": "function"
    },
    {
      "inputs": [
        {
          "internalType": "address",
          "name": "oldSigner",
          "type": "address"
        },
        {
          "internalType": "uint256",
          "name": "newSignaturesRequired",
          "type": "uint256"
        }
      ],
      "name": "removeSigner",
      "outputs": [],
      "stateMutability": "nonpayable",
      "type": "function"
    },
    {
      "inputs": [],
      "name": "signaturesRequired",
      "outputs": [
        {
          "internalType": "uint256",
          "name": "",
          "type": "uint256"
        }
      ],
      "stateMutability": "view",
      "type": "function"
    },
    {
      "inputs": [
        {
          "internalType": "address",
          "name": "to",
          "type": "address"
        }
      ],
      "name": "streamBalance",
      "outputs": [
        {
          "internalType": "uint256",
          "name": "",
          "type": "uint256"
        }
      ],
      "stateMutability": "view",
      "type": "function"
    },
    {
      "inputs": [
        {
          "internalType": "uint256",
          "name": "amount",
          "type": "uint256"
        },
        {
          "internalType": "string",
          "name": "reason",
          "type": "string"
        }
      ],
      "name": "streamWithdraw",
      "outputs": [],
      "stateMutability": "nonpayable",
      "type": "function"
    },
    {
      "inputs": [
        {
          "internalType": "address",
          "name": "",
          "type": "address"
        }
      ],
      "name": "streams",
      "outputs": [
        {
          "internalType": "uint256",
          "name": "amount",
          "type": "uint256"
        },
        {
          "internalType": "uint256",
          "name": "frequency",
          "type": "uint256"
        },
        {
          "internalType": "uint256",
          "name": "last",
          "type": "uint256"
        }
      ],
      "stateMutability": "view",
      "type": "function"
    },
    {
      "inputs": [
        {
          "internalType": "uint256",
          "name": "newSignaturesRequired",
          "type": "uint256"
        }
      ],
      "name": "updateSignaturesRequired",
      "outputs": [],
      "stateMutability": "nonpayable",
      "type": "function"
    },
    {
      "stateMutability": "payable",
      "type": "receive"
    }
  ],
  "transactionHash": "0xe90ce5fd8a29659a08a5540fef134db6c4ad2616dcbc5d320519d1d7ada5e837",
  "args": [
    11155111,
    [
      "0x2e0aCE0129E66A36cee92c5146C73Ec4874d0109"
    ],
    1
  ],
  "numDeployments": 1,
  "solcInputHash": "63b0ce979103401bbeaac6e4cc8f9e06",
  "bytecode": "0x60806040523480156200001157600080fd5b5060405162001727380380620017278339810160408190526200003491620001fd565b600081116200009e5760405162461bcd60e51b815260206004820152602b60248201527f636f6e7374727563746f723a206d757374206265206e6f6e2d7a65726f20736960448201526a19dcc81c995c5d5a5c995960aa1b60648201526084015b60405180910390fd5b600181905560005b8251811015620001be576000838281518110620000c757620000c7620002e6565b6020026020010151905060006001600160a01b0316816001600160a01b0316141580156200010e57506001600160a01b03811660009081526020819052604090205460ff16155b6200015c5760405162461bcd60e51b815260206004820152601460248201527f636f6e7374727563746f723a20696e76616c6964000000000000000000000000604482015260640162000095565b6001600160a01b03811660008181526020818152604091829020805460ff1916600190811790915591519182527ffe545f48304051c4029eb2da9927daa59da0414b4b084fdceaf2955b609b899e910160405180910390a250600101620000a6565b505050600355620002fc565b634e487b7160e01b600052604160045260246000fd5b80516001600160a01b0381168114620001f857600080fd5b919050565b6000806000606084860312156200021357600080fd5b8351602080860151919450906001600160401b03808211156200023557600080fd5b818701915087601f8301126200024a57600080fd5b8151818111156200025f576200025f620001ca565b8060051b604051601f19603f83011681018181108582111715620002875762000287620001ca565b60405291825284820192508381018501918a831115620002a657600080fd5b938501935b82851015620002cf57620002bf85620001e0565b84529385019392850192620002ab565b809750505050505050604084015190509250925092565b634e487b7160e01b600052603260045260246000fd5b61141b806200030c6000396000f3fe6080604052600436106100ec5760003560e01c8063836992751161008a578063ce757d2911610059578063ce757d2914610302578063d1fbffa014610318578063de4b9e9314610345578063e0a2ff541461036557600080fd5b8063836992751461025f5780639a8a0592146102b6578063a8397ddc146102cc578063affed0e0146102ec57600080fd5b80633034a742116100c65780633034a742146101d15780633bad5426146101f1578063545a4a3c1461021157806365af1bed1461023f57600080fd5b806319045a25146101325780632a387d5d1461016f5780632f54bf6e1461019157600080fd5b3661012d576040805134815247602082015233917f90890809c654f11d6e72a28fa60149770a0d11ec6c92319d6ceb2bb0a4ea1a15910160405180910390a2005b600080fd5b34801561013e57600080fd5b5061015261014d366004610f2a565b610385565b6040516001600160a01b0390911681526020015b60405180910390f35b34801561017b57600080fd5b5061018f61018a366004610f86565b61039a565b005b34801561019d57600080fd5b506101c16101ac366004610fbb565b60006020819052908152604090205460ff1681565b6040519015158152602001610166565b3480156101dd57600080fd5b5061018f6101ec366004610fdf565b61049d565b3480156101fd57600080fd5b5061018f61020c366004610ff8565b61051b565b34801561021d57600080fd5b5061023161022c366004611024565b610600565b604051908152602001610166565b34801561024b57600080fd5b5061018f61025a366004610ff8565b61063f565b34801561026b57600080fd5b5061029b61027a366004610fbb565b60046020526000908152604090208054600182015460029092015490919083565b60408051938452602084019290925290820152606001610166565b3480156102c257600080fd5b5061023160035481565b3480156102d857600080fd5b5061018f6102e7366004611087565b610734565b3480156102f857600080fd5b5061023160025481565b34801561030e57600080fd5b5061023160015481565b34801561032457600080fd5b506103386103333660046110d8565b610793565b604051610166919061122c565b34801561035157600080fd5b5061018f610360366004610fbb565b610971565b34801561037157600080fd5b50610231610380366004610fbb565b610a95565b60006103918383610ad2565b90505b92915050565b3330146103c25760405162461bcd60e51b81526004016103b99061123f565b60405180910390fd5b6001600160a01b0383166000908152600460205260409020541580156103e85750600082115b80156103f45750600081115b6104365760405162461bcd60e51b81526020600482015260136024820152721bdc195b94dd1c99585b4e881a5b9d985b1a59606a1b60448201526064016103b9565b6001600160a01b0383166000818152600460209081526040918290204260028201556001810185905585905581518581529081018490527f81236f9eb471668cf00861415085dace409d719678881c59b03e49683bbef716910160405180910390a2505050565b3330146104bc5760405162461bcd60e51b81526004016103b99061123f565b600081116105165760405162461bcd60e51b815260206004820152602160248201527f7570646174655369676e61747572657352657175697265643a20696e76616c696044820152601960fa1b60648201526084016103b9565b600155565b33301461053a5760405162461bcd60e51b81526004016103b99061123f565b6001600160a01b03821660009081526020819052604090205460ff1680156105625750600081115b6105a65760405162461bcd60e51b81526020600482015260156024820152741c995b5bdd9954da59db995c8e881a5b9d985b1a59605a1b60448201526064016103b9565b60018190556001600160a01b038216600081815260208181526040808320805460ff19169055519182527ffe545f48304051c4029eb2da9927daa59da0414b4b084fdceaf2955b609b899e91015b60405180910390a25050565b6000306003548686868660405160200161061f96959493929190611261565b604051602081830303815290604052805190602001209050949350505050565b33301461065e5760405162461bcd60e51b81526004016103b99061123f565b6001600160a01b0382161580159061068f57506001600160a01b03821660009081526020819052604090205460ff16155b801561069b5750600081115b6106dc5760405162461bcd60e51b815260206004820152601260248201527118591914da59db995c8e881a5b9d985b1a5960721b60448201526064016103b9565b60018181556001600160a01b03831660008181526020818152604091829020805460ff191685179055905192835290917ffe545f48304051c4029eb2da9927daa59da0414b4b084fdceaf2955b609b899e91016105f4565b336000908152600460205260409020546107845760405162461bcd60e51b81526020600482015260116024820152701dda5d1a191c985dce881a5b9d985b1a59607a1b60448201526064016103b9565b61078f338383610af6565b5050565b3360009081526020819052604090205460609060ff166107c55760405162461bcd60e51b81526004016103b9906112bc565b60006107d5600254878787610600565b6002805460010190559050600080805b855181101561087c57600061081385888481518110610806576108066112f3565b6020026020010151610385565b9050826001600160a01b0316816001600160a01b0316116108465760405162461bcd60e51b81526004016103b9906112bc565b6001600160a01b038116600090815260208190526040902054909250829060ff1615610873578360010193505b506001016107e5565b50600080896001600160a01b031689896040516108999190611309565b60006040518083038185875af1925050503d80600081146108d6576040519150601f19603f3d011682016040523d82523d6000602084013e6108db565b606091505b50915091508180156108ef57506001548410155b61090b5760405162461bcd60e51b81526004016103b9906112bc565b336001600160a01b03167f9053e9ec105157fac8c9308d63e6b22be5f50fe915a3e567419b624311a02d748b8b8b60016002546109489190611325565b8a8760405161095c96959493929190611346565b60405180910390a29998505050505050505050565b3330146109905760405162461bcd60e51b81526004016103b99061123f565b6001600160a01b0381166000908152600460205260409020546109ec5760405162461bcd60e51b815260206004820152601460248201527318db1bdcd954dd1c99585b4e881a5b9d985b1a5960621b60448201526064016103b9565b610a448160046000846001600160a01b03166001600160a01b03168152602001908152602001600020600001546040518060400160405280600d81526020016c1cdd1c99585b4818db1bdcd959609a1b815250610af6565b6001600160a01b03811660008181526004602052604080822082815560018101839055600201829055517fcc362a45d32c94d02a329570bd5935709d77f6dc79ac6afa5107b513642461c29190a250565b6001600160a01b0381166000908152600460205260408120600181015460028201549154909142030281610acb57610acb611398565b0492915050565b6000806000610ae18585610c15565b91509150610aee81610c5a565b509392505050565b6000610b0184610a95565b905082811015610b475760405162461bcd60e51b81526020600482015260116024820152701dda5d1a191c985dce881a5b9d985b1a59607a1b60448201526064016103b9565b6001600160a01b03841660009081526004602052604090206002015481904203840281610b7657610b76611398565b6001600160a01b0386166000818152600460205260409081902060020180549490930490930190915590517f485f1bb6524c663555797e00171a10f341656e59b02d6b557a0a38ba7d5d975190610bd090869086906113ae565b60405180910390a26040516001600160a01b0385169084156108fc029085906000818181858888f19350505050158015610c0e573d6000803e3d6000fd5b5050505050565b6000808251604103610c4b5760208301516040840151606085015160001a610c3f87828585610da7565b94509450505050610c53565b506000905060025b9250929050565b6000816004811115610c6e57610c6e6113cf565b03610c765750565b6001816004811115610c8a57610c8a6113cf565b03610cd75760405162461bcd60e51b815260206004820152601860248201527f45434453413a20696e76616c6964207369676e6174757265000000000000000060448201526064016103b9565b6002816004811115610ceb57610ceb6113cf565b03610d385760405162461bcd60e51b815260206004820152601f60248201527f45434453413a20696e76616c6964207369676e6174757265206c656e6774680060448201526064016103b9565b6003816004811115610d4c57610d4c6113cf565b03610da45760405162461bcd60e51b815260206004820152602260248201527f45434453413a20696e76616c6964207369676e6174757265202773272076616c604482015261756560f01b60648201526084016103b9565b50565b6000807f7fffffffffffffffffffffffffffffff5d576e7357a4501ddfe92f46681b20a0831115610dde5750600090506003610e62565b6040805160008082526020820180845289905260ff881692820192909252606081018690526080810185905260019060a0016020604051602081039080840390855afa158015610e32573d6000803e3d6000fd5b5050604051601f1901519150506001600160a01b038116610e5b57600060019250925050610e62565b9150600090505b94509492505050565b634e487b7160e01b600052604160045260246000fd5b604051601f8201601f1916810167ffffffffffffffff81118282101715610eaa57610eaa610e6b565b604052919050565b600067ffffffffffffffff831115610ecc57610ecc610e6b565b610edf601f8401601f1916602001610e81565b9050828152838383011115610ef357600080fd5b828260208301376000602084830101529392505050565b600082601f830112610f1b57600080fd5b61039183833560208501610eb2565b60008060408385031215610f3d57600080fd5b82359150602083013567ffffffffffffffff811115610f5b57600080fd5b610f6785828601610f0a565b9150509250929050565b6001600160a01b0381168114610da457600080fd5b600080600060608486031215610f9b57600080fd5b8335610fa681610f71565b95602085013595506040909401359392505050565b600060208284031215610fcd57600080fd5b8135610fd881610f71565b9392505050565b600060208284031215610ff157600080fd5b5035919050565b6000806040838503121561100b57600080fd5b823561101681610f71565b946020939093013593505050565b6000806000806080858703121561103a57600080fd5b84359350602085013561104c81610f71565b925060408501359150606085013567ffffffffffffffff81111561106f57600080fd5b61107b87828801610f0a565b91505092959194509250565b6000806040838503121561109a57600080fd5b82359150602083013567ffffffffffffffff8111156110b857600080fd5b8301601f810185136110c957600080fd5b610f6785823560208401610eb2565b600080600080608085870312156110ee57600080fd5b84356110f981610f71565b93506020858101359350604086013567ffffffffffffffff8082111561111e57600080fd5b61112a89838a01610f0a565b9450606088013591508082111561114057600080fd5b818801915088601f83011261115457600080fd5b81358181111561116657611166610e6b565b8060051b611175858201610e81565b918252838101850191858101908c84111561118f57600080fd5b86860192505b838310156111cb578235858111156111ad5760008081fd5b6111bb8e89838a0101610f0a565b8352509186019190860190611195565b999c989b5096995050505050505050565b60005b838110156111f75781810151838201526020016111df565b50506000910152565b600081518084526112188160208601602086016111dc565b601f01601f19169290920160200192915050565b6020815260006103916020830184611200565b6020808252600890820152672737ba1029b2b63360c11b604082015260600190565b60006bffffffffffffffffffffffff19808960601b168352876014840152866034840152808660601b1660548401525083606883015282516112aa8160888501602087016111dc565b91909101608801979650505050505050565b6020808252601b908201527f657865637574655472616e73616374696f6e3a20696e76616c69640000000000604082015260600190565b634e487b7160e01b600052603260045260246000fd5b6000825161131b8184602087016111dc565b9190910192915050565b8181038181111561039457634e487b7160e01b600052601160045260246000fd5b60018060a01b038716815285602082015260c06040820152600061136d60c0830187611200565b85606084015284608084015282810360a084015261138b8185611200565b9998505050505050505050565b634e487b7160e01b600052601260045260246000fd5b8281526040602082015260006113c76040830184611200565b949350505050565b634e487b7160e01b600052602160045260246000fdfea2646970667358221220ca8bc50e8da1acf8023ccb829f6bfaee32b908c45bfc0d367e1eade7c255fa2564736f6c63430008110033",
  "devdoc": {
    "kind": "dev",
    "methods": {},
    "version": 1
  },
  "userdoc": {
    "kind": "user",
    "methods": {},
    "version": 1
  },
  "storageLayout": {
    "storage": [
      {
        "astId": 1605,
        "contract": "contracts/MetaMultiSigWallet.sol:MetaMultiSigWallet",
        "label": "isOwner",
        "offset": 0,
        "slot": "0",
        "type": "t_mapping(t_address,t_bool)"
      },
      {
        "astId": 1607,
        "contract": "contracts/MetaMultiSigWallet.sol:MetaMultiSigWallet",
        "label": "signaturesRequired",
        "offset": 0,
        "slot": "1",
        "type": "t_uint256"
      },
      {
        "astId": 1609,
        "contract": "contracts/MetaMultiSigWallet.sol:MetaMultiSigWallet",
        "label": "nonce",
        "offset": 0,
        "slot": "2",
        "type": "t_uint256"
      },
      {
        "astId": 1611,
        "contract": "contracts/MetaMultiSigWallet.sol:MetaMultiSigWallet",
        "label": "chainId",
        "offset": 0,
        "slot": "3",
        "type": "t_uint256"
      },
      {
        "astId": 2000,
        "contract": "contracts/MetaMultiSigWallet.sol:MetaMultiSigWallet",
        "label": "streams",
        "offset": 0,
        "slot": "4",
        "type": "t_mapping(t_address,t_struct(Stream)1995_storage)"
      }
    ],
    "types": {
      "t_address": {
        "encoding": "inplace",
        "label": "address",
        "numberOfBytes": "20"
      },
      "t_bool": {
        "encoding": "inplace",
        "label": "bool",
        "numberOfBytes": "1"
      },
      "t_mapping(t_address,t_bool)": {
        "encoding": "mapping",
        "key": "t_address",
        "label": "mapping(address => bool)",
        "numberOfBytes": "32",
        "value": "t_bool"
      },
      "t_mapping(t_address,t_struct(Stream)1995_storage)": {
        "encoding": "mapping",
        "key": "t_address",
        "label": "mapping(address => struct MetaMultiSigWallet.Stream)",
        "numberOfBytes": "32",
        "value": "t_struct(Stream)1995_storage"
      },
      "t_struct(Stream)1995_storage": {
        "encoding": "inplace",
        "label": "struct MetaMultiSigWallet.Stream",
        "members": [
          {
            "astId": 1990,
            "contract": "contracts/MetaMultiSigWallet.sol:MetaMultiSigWallet",
            "label": "amount",
            "offset": 0,
            "slot": "0",
            "type": "t_uint256"
          },
          {
            "astId": 1992,
            "contract": "contracts/MetaMultiSigWallet.sol:MetaMultiSigWallet",
            "label": "frequency",
            "offset": 0,
            "slot": "1",
            "type": "t_uint256"
          },
          {
            "astId": 1994,
            "contract": "contracts/MetaMultiSigWallet.sol:MetaMultiSigWallet",
            "label": "last",
            "offset": 0,
            "slot": "2",
            "type": "t_uint256"
          }
        ],
        "numberOfBytes": "96"
      },
      "t_uint256": {
        "encoding": "inplace",
        "label": "uint256",
        "numberOfBytes": "32"
      }
    }
  }
}